:020000040800F2
:10000000D00400209D01000847110008C70F000818
:1000100045110008A90200082B1500080000000087
:100020000000000000000000000000006B1100084C
:10003000AB020008000000006911000899110008D7
:10004000B7010008B7010008B7010008B7010008B0
:10005000B7010008B7010008B7010008B7010008A0
:10006000B7010008AD020008C1020008B70100088E
:10007000B7010008B7010008B7010008B701000880
:10008000B7010008B7010008B7010008B701000870
:10009000B7010008B7010008B7010008B701000860
:1000A000B7010008B7010008B7010008B701000850
:1000B00071120008B7010008B7010008B701000875
:1000C000B7010008B7010008B7010008B701000830
:1000D000B7010008B7010008B7010008B701000820
:1000E000B7010008B7010008B7010008B701000810
:1000F000B7010008B7010008B7010008B701000800
:10010000B7010008B7010008B7010008B7010008EF
:10011000B7010008B7010008B7010008B7010008DF
:10012000B7010008B7010008B7010008B7010008CF
:10013000B7010008B7010008B7010008B7010008BF
:10014000B7010008B7010008B7010008B7010008AF
:10015000B7010008B7010008B7010008B70100089F
:10016000B7010008B7010008B7010008B70100088F
:10017000B7010008B7010008B7010008000000003F
:10018000B7010008B7010008DFF80CD000F07AF8DA
:10019000004800474D150008D0040020064880475D
:1001A00006480047FEE7FEE7FEE7FEE7FEE7FEE75C
:1001B000FEE7FEE7FEE7FEE71D12000889010008E2
:1001C0002DE9F05F0546002092469B46884606468C
:1001D000814640241BE0284641464746224600F01F
:1001E00041F853465A46C01A914110D31146184659
:1001F000224600F028F82D1A67EB01084F462246E8
:100200000120002100F01FF817EB00094E41201ECD
:10021000A4F10104DFDC484631462A464346BDE8E6
:10022000F09FD2B201E000F8012B491EFBD27047CB
:100230000022F6E710B513460A4604461946FFF7B2
:10024000F0FF204610BD202A04DB203A00FA02F11C
:10025000002070479140C2F1200320FA03F31943B4
:1002600090407047202A04DB203A21FA02F0002156
:10027000704721FA02F3D040C2F1200291400843B6
:1002800019467047064C074D06E0E06840F0010350
:1002900094E8070098471034AC42F6D3FFF778FF94
:1002A000CC150008EC150008FEE77047034801680C
:1002B000491C0160082000F00FB800000400002075
:1002C00003480168491C0160102000F005B80000D7
:1002D0000800002070470000044910B50A68024277
:1002E00002D00860FFF7F6FF10BD0000143C01408B
:1002F0002DE9F84FDFF87CB100224FF001084FF0F4
:10030000030A4FF00F090BF1040E00BF0B6808FA47
:1003100002F42340A3426ED14D68022D01D0122D6C
:100320000ED1D50800EB850CDCF820505607F70EEF
:1003300009FA07F6B5430E69BE402E43CCF820609B
:10034000066855000F790AFA05FC07F0030726EA4C
:100350000C06AF40374307604E68012E05D0022ED1
:1003600003D0112E01D0122E0ED18668CF6826EA56
:100370000C06AF40374387604668A6430C79C4F348
:100380000014944034434460C6688C6826EA0C0626
:10039000AC403443C4604C68E40065D5364C2568F5
:1003A00045F480452560246822F0030504F4804468
:1003B0000094324C2E19D6F8084895072F0F09FAE9
:1003C00007F5AC432E4DA84201D1002524E02D4D68
:1003D000A84201D101251FE02B4DA84201D10225E1
:1003E0001AE02A4DA84201D1032515E0284DA84264
:1003F00002D1042510E037E0264DA84201D10525A1
:100400000AE0254DA84201D1062505E0234DA8426A
:1004100001D1072500E00825BD402543C6F808584E
:10042000DBF800405D464E689C43F60300D51C4354
:100430002C60DEF8004075464E689C43B60300D53C
:100440001C432C600B4D08352C684E689C43F6020B
:1004500000D51C432C60074D0C352C684E689C431E
:10046000B60200D51C432C60521C102AFFF44EAF7C
:10047000BDE8F88F003C01404438024000300140A4
:10048000000002400004024000080240000C02404C
:10049000001002400014024000180240001C0240FC
:1004A0000AB1816170470904FBE7000001488068D8
:1004B000704700004800002002488168027811441B
:1004C00081607047480000200B4810B5016841F476
:1004D00000710160016841F480610160016841F4CC
:1004E00080710160032000F06DF8002000F006F834
:1004F00000F024F8002010BD003C024070B50D4D06
:1005000004464FF47A712878B1FBF0F00A49096883
:10051000B1FBF0F000F0C0FA48B9102C07D200226D
:100520002146501E00F02EF800206C6070BD0120A6
:1005300070BD000048000020540000200A4808B5A3
:10054000016841F480410160006800F4804000903F
:100550000548001F016841F080510160006800F00B
:100560008050009008BD00004438024000F01F0297
:10057000012191404009800000F1E020C0F8001105
:1005800070470000F0B40E4B1B680C46C3F3022307
:10059000C3F10705042D00D90425191D072901D22F
:1005A000002300E0DB1E012606FA05F1491E21406A
:1005B00099409E40761E16403143F0BC00F0C4BD09
:1005C0000CED00E0064900F0070208684FF6FF0353
:1005D000184040EA0220034A1043086070470000B8
:1005E0000CED00E00000FA052DE9F0470E4605008D
:1005F00065D0DFF81481D8F80000F7B200F00F00E2
:10060000B04207D288F80070D8F8000000F00F0060
:10061000B04254D128683D4C810712D5400703D51C
:10062000206840F4E05020602878000703D5206857
:1006300040F4604020602068A96820F0F000084382
:1006400020602878C0072DD0304968680839012813
:1006500012D0022813D0032811D009688907002975
:100660002DDA216821F0030101432160FFF71EFF0D
:10067000814641F2883A0EE009688903EFE709688C
:100680008901ECE7FFF712FFA0EB0901514502D900
:100690000320BDE8F0872068696800F00C00B0EB2B
:1006A000810FEFD1D8F80010404601F00F01B142A0
:1006B00007D90770006800F00F00B04201D0012098
:1006C000E7E72878400705D52068E96820F4E0507E
:1006D000084320602878000706D52068296920F49F
:1006E000604040EAC100206000F016F82168084A26
:1006F000C1F30311515CC840064908600020FFF7B0
:10070000FDFE0020C5E70000003C02400838024022
:10071000BC15000854000020154810B5006810F002
:100720000C02144813D01449042A0FD0082A0ED101
:100730000F4C241F2268236802F03F025B0207D59A
:100740002068C0F38810A0FB010106E0084610BD38
:100750002168C1F38811A1FB00010023FFF730FDE0
:100760002168C1F30141491C4900B0FBF1F010BD03
:10077000083802400024F40040787D012DE9F84F4C
:10078000050076D02878DFF8F8B2BE4CC00749D013
:10079000DBF800105846C1F38101012908D0006838
:1007A000C0F3810002280AD1201D0068400206D54E
:1007B0002068800336D568680028E2D032E0686897
:1007C000B0F5803F10D0B0F5A02F206810D020F4F5
:1007D00080302060206820F4802020606868A0B10C
:1007E000FFF764FE06460CE0206840F48030F4E732
:1007F00040F480202060F7E7FFF758FE801B642854
:1008000073D820688003F7D50CE0FFF74FFE06464B
:1008100005E000BFFFF74AFE801B6428F0D820687F
:100820008003F7D42878DFF8608280074FF0000952
:100830003ED5DBF80010584611F00C0F09D00068C7
:10084000C0F3810002280BD18D48001F00684002D0
:1008500006D42068800715D5E868012809D111E081
:10086000E868B8B10120C8F80000FFF71FFE06468F
:1008700005E002E1FFF71AFE801B0228C0D82068BD
:100880008007F7D52068296920F0F80040EAC10008
:1008900020600DE0C8F80090FFF708FE064604E06F
:1008A000FFF704FE801B02281FD820688007F7D4BA
:1008B0002878000722D5724E744869696C3671B188
:1008C00001210160FFF7F2FD074604E0FFF7EEFDAE
:1008D000C01B022809D830688007F7D50EE0C0F8A1
:1008E0000090FFF7E3FD074605E083E0FFF7DEFD3C
:1008F000C01B02287ED830688007F7D428784007CC
:1009000068D5DFF87CA100270AF1380ADAF8000080
:10091000C0000BD4DAF8001041F08051CAF8001082
:10092000DAF80000012700F080500090584E30683F
:10093000C00510D4306840F480703060FFF7B6FD19
:10094000009005E0FFF7B2FD0099401A022851D847
:100950003068C005F6D54A4EA868683601280FD021
:100960000528306810D020F001003060306820F099
:1009700004003060A868B8B1FFF798FD00900FE060
:10098000306840F00100F4E740F004003060F7E721
:10099000FFF78CFD0099411A41F28830814264D8FA
:1009A00030688007F4D50EE0FFF780FD009007E087
:1009B000FFF77CFD0099411A41F28830814254D8FA
:1009C00030688007F4D42FB1DAF8001021F080519C
:1009D000CAF80010A869C0B3DBF80010C1F38101A8
:1009E00002294AD00228484607D0C8F86000FFF71D
:1009F0005DFD00E039E005463AE04746C8F8600092
:100A0000FFF754FD064604E0FFF750FD801B022867
:100A10002BD820688001F7D4D5E907010843A96ADB
:100A20001C4A490802EB01416A6A41EA8211084303
:100A300095F82C1040EA01611148001F0160012067
:100A40003866FFF733FD054605E014E0FFF72EFD9D
:100A5000401B022809D820688001F7D50BE000BFB1
:100A6000FFF724FD401B022802D90320BDE8F88FC0
:100A700020688001F4D40020F8E70120F6E70000A8
:100A8000083802400038024000004742800E4742CA
:100A9000007000400000FFFF10B5401EB0F1807FE5
:100AA00001D3012010BD4FF0E02460610F216017D9
:100AB00000F04AFB0020A06107202061002010BD4B
:100AC0007047704730B590F83820012A20D00122B5
:100AD00080F83820022380F8393003685C6824F0FD
:100AE00070045C6003685C680D682C435C6003689C
:100AF0009C6824F080049C6003689C6849680C43EF
:100B00009C6080F83920002180F83810084630BDFC
:100B1000022030BD10B5040003D094F8390010B1A4
:100B200007E0012010BD002084F83800204600F0C6
:100B30000DF8022084F83900211D206800F09EFB8A
:100B4000012084F83900002010BD000008B50168BC
:100B50001048B1F1804F0BD00F4A914207D1016884
:100B600041F004010160006800F00400009008BD3D
:100B7000016841F0010101600068002200F00100FD
:100B8000009011461C20FFF7FDFCBDE808401C202A
:100B9000FFF7ECBC40380240000800400168CA681A
:100BA00042F00102CA600068016841F00101016081
:100BB0000020704770B5044690F83800012817D01F
:100BC000012584F83850022084F8390020688268B2
:100BD00022F0770222F47F4282600868502837D0E2
:100BE0000DDC202859D005DC88B3102841D151E014
:100BF000022070BD302853D040283AD13FE0602811
:100C00002ED070280BD0B0F5805F03D0B0F5005F18
:100C10002FD110E02068816821F0070115E0CB6832
:100C2000D1E90121206800F094FB2168886840F038
:100C3000770088601DE0CB68D1E90121206800F0D1
:100C400088FB2068816841F48041816011E01EE0EA
:100C5000CA684968206800F045FC5021206806E019
:100C6000CA684968206800F04EFC6021206800F0E6
:100C70007AFB84F83950002084F8380070BDCA68C7
:100C80004968206800F02EFC40212068EFE7002131
:100C90002068ECE710212068E9E720212068E6E7DA
:100CA00030212068E3E7704770B5044600680169A9
:100CB0004FF00005C943890715D4C168C9438907A6
:100CC00011D4E91E01610120207620688069800727
:100CD000204602D0FFF7E7FF04E000F0C3F820460B
:100CE00000F045F9257620680169C943490717D402
:100CF000C168C943490713D46FF0040101610220A0
:100D000020762068806910F4407F204602D0FFF7EB
:100D1000CAFF04E000F0A6F8204600F028F9257686
:100D200020680169C943090716D4C168C943090786
:100D300012D46FF008010161042020762068C06998
:100D40008007204602D0FFF7AEFF04E000F08AF8EB
:100D5000204600F00CF9257620680169C943C906D0
:100D600017D4C168C943C90613D46FF010010161DB
:100D7000082020762068C06910F4407F204602D009
:100D8000FFF791FF04E000F06DF8204600F0EFF867
:100D9000257620680169C943C90708D1C168C943DC
:100DA000C90704D1891E0161204600F0FDF82068C2
:100DB0000169C943090609D4C168C943090605D4B4
:100DC0006FF0800101612046FFF77AFE206801691B
:100DD000C943490609D4C168C943490605D46FF01F
:100DE00040010161204600F0EDF820680169C94327
:100DF00089060BD4C168C943890607D46FF0200166
:100E000001612046BDE87040FFF75BBE70BD000089
:100E100010B586B0044614216846FFF709FA0E495A
:100E20002068884215D10D480021026842F008026E
:100E30000260006800F0080005904FF4C040009088
:100E40000220CDE901010390049069460448FFF7B0
:100E50004FFA06B010BD00000008004030380240D4
:100E6000000C0240704770B5044690F838000D46FB
:100E700001280DD0012684F83860022084F839005A
:100E800042B1042A18D0082A2AD00C2A4DD139E0C0
:100E9000022070BD206800F06FFA2068816941F07F
:100EA000080181612068816921F004018161206865
:100EB00081692A69114311E0206800F089FA2068ED
:100EC000816941F4006181612068816921F4806158
:100ED0008161206881692A6941EA0221816124E0F7
:100EE000206800F0A7FA2068C16941F00801C161DB
:100EF0002068C16921F00401C1612068C1692A69C3
:100F0000114311E0206800F0C5FA2068C16941F47E
:100F10000061C1612068C16921F48061C1612068FC
:100F2000C1692A6941EA0221C16184F8396000205F
:100F300084F8380070BD10B5040003D094F839006F
:100F400010B107E0012010BD002084F838002046D1
:100F500000F00CF8022084F83900211D206800F010
:100F60008DF9012084F83900002010BD70477047CA
:100F700010B504460068012200F0E0F90849206835
:100F8000884202D00749884203D1416C41F40041B4
:100F900041642068016841F001010160002010BD3A
:100FA00000000140000401400449006809688842CB
:100FB00003D103490878401C08707047580000208E
:100FC000000000207047FEE770B586B01421684627
:100FD000FFF72EF922480024016841F00801016062
:100FE000016801F008010591016841F0010101600B
:100FF000016801F001010591016841F00201016001
:101000000068184E00F002004FF4104505900022D1
:1010100029463046FFF744FA01200095CDE9010446
:10102000694630460394FFF763F9182000900E4894
:10103000CDE9010469460D48FFF75AF9002211462F
:101040000920FFF79FFA0920FFF790FA00221146C6
:101050000A20FFF797FA0A20FFF788FA06B070BD5A
:1010600030380240000C0240000011100004024021
:1010700010B586B0002411480094019402940394A2
:1010800004944FF080410594016042F2CF01C0E921
:10109000011440F2E731C0E90314FFF73BFD4FF4C0
:1010A0008050009069460548FFF784FD049404A928
:1010B00002480594FFF706FD06B010BD5800002059
:1010C00010B58EB000240794089409940A940B94E8
:1010D0001C2168460C94FFF7ABF8194817490160CA
:1010E0001421C0E9011440F28F11C0E90314FFF785
:1010F00011FD4FF48050079007A91148FFF75AFDE2
:101100000F48FFF718FF0B940BA90D480C94FFF73D
:10111000D9FC6020CDE90004029404226946084805
:101120000494FFF7A0FE082269460548FFF79BFEDE
:101130000348FFF76DFE0EB010BD00000008004030
:1011400094000020FEE770470907090E002806DA20
:1011500000F00F0000F1E02080F8141D704700F14E
:10116000E02080F80014704770477047642A01DD62
:10117000642202E0002A00DA0022064B5B88534317
:10118000642293FBF2F2036821F0030034301A501A
:101190007047000000000020FFF78EB930B593B013
:1011A00030216846FFF744F814210CA8FFF740F8F7
:1011B00018480025016841F080510160006800F086
:1011C000805011901448016841F48041016000682A
:1011D000022400F48040119001200390102004901C
:1011E000009406940820CDE907505420CDE9090465
:1011F00004200B906846FFF7C1FA0CA90F2081E884
:101200003100E002CDE90F0502210CA8FFF7ECF94F
:1012100013B030BD403802400070004010480168F3
:1012200041F4700101600F48016841F00101016063
:101230000C4A00210832116002680B4B1A40026010
:10124000031D0A4A1A60026822F4802202600548DF
:101250000C30016002495806803908607047000070
:1012600088ED00E000380240FFFFF6FE1030002459
:101270000148FFF719BD000058000020F0B50268D2
:10128000234B244D244E254F254C4FF0804C984243
:1012900009D0604507D0A84205D0B04203D0B8427B
:1012A00001D0A04204D122F0700E4A6842EA0E0238
:1012B00098421BD0604519D0A84217D0B04215D033
:1012C000B84213D0A04211D0164DA8420ED0164DF0
:1012D000A8420BD0154DA84208D0154DA84205D004
:1012E000144DA84202D0144DA84203D122F44075F7
:1012F000CA682A4302608A68C2620A6882629842A7
:1013000001D0A04201D10969016301214161F0BD11
:10131000000001400004004000080040000C0040B4
:1013200000040140004001400044014000480140E9
:1013300000180040001C00400020004010B50123B0
:10134000046A8B409C430462036A8A40134303622D
:1013500010BD10B5846842EA032224F47F440A4396
:101360002243826010BD826822F070020A4342F07C
:10137000070181607047000030B5026A22F0010267
:101380000262026A436884690D6824F0730425438D
:1013900022F002048A6822430B4CA04202D00B4C7C
:1013A000A0420BD122F00804CA6823F44073224300
:1013B0004C6922F004021C438B692343436085611E
:1013C00049684163026230BD0000014000040140F1
:1013D00030B5026A22F010020262026A4368846930
:1013E0000D6824F4E64444EA05248D6822F02002C6
:1013F00042EA05120D4DA84202D00D4DA8420ED171
:10140000CD6822F0800242EA05124D6923F4406360
:1014100043EA85038D6922F0400243EA8503436075
:10142000846149688163026230BD000000000140B0
:101430000004014030B5026A22F480720262036A3D
:101440004268C46923F4007324F073050C682C43CC
:101450008D6843EA05230D4DA84202D00C4DA842E9
:101460000ED1CD6823F4006343EA05234D6922F4CD
:10147000405242EA05128D6923F4806342EA051264
:101480004260C4614968C163036230BD000001402D
:101490000004014030B5026A22F480520262046AFC
:1014A0004268C3690D6823F4E64343EA05238D6867
:1014B00024F4005444EA0534084DA84202D0084DF3
:1014C000A84204D14D6922F4804242EA851242606A
:1014D000C36149680164046230BD0000000001403E
:1014E0000004014010B5036A046A24F00104046298
:1014F000846924F0F00444EA021423F00A020A4347
:101500008461026210BD10B5036A23F01003036208
:101510008369046A23F4704343EA023224F0A0038F
:1015200043EA01118261016210BDFEE702E008C8D2
:10153000121F08C1002AFAD170477047002001E04D
:1015400001C1121F002AFBD170470000FEF7BCFF4B
:10155000FFF724FEFFF738FDFFF7B2FDFFF788FD28
:1015600000211448FFF704FD04211248FFF700FD95
:1015700008211048FFF7FCFC0C210E48FFF7F8FC8F
:101580000C483C38FFF70AFB0B4C012211032046A4
:10159000FEF786FF0122D1032046FEF781FF1E22BF
:1015A00004210448FFF7E2FD642208210148FFF707
:1015B000DDFDFEE794000020000C0240000000006A
:1015C000000000000102030406070809EC150008EA
:1015D00000000020580000002C15000844160008E8
:1015E00058000020780400003C15000800008F011E
:1015F00000000000000000000000000000000000EB
:10160000000040400000003F000048420000000091
:101610000000000000000000000000000000144274
:101620000000104100000000CDCCCC3D9A99193F3C
:101630000000000001000000100000000000000099
:041640000024F4008E
:040000050800018965
:00000001FF
