:020000040800F2
:10000000280500209D010008C3140008E313000820
:10001000C1140008850200085518000800000000FF
:100020000000000000000000000000005917000858
:100030003903000800000000E51400085B17000801
:10004000B7010008B7010008B7010008B7010008B0
:10005000B7010008B7010008B7010008B7010008A0
:10006000B7010008B7010008B701000889020008BD
:10007000B7010008B7010008B7010008B701000880
:10008000B7010008B7010008B7010008B701000870
:10009000B7010008B7010008B7010008B701000860
:1000A000B7010008B7010008B7010008B701000850
:1000B000B7010008B7010008B7010008B701000840
:1000C000B7010008B7010008B7010008B701000830
:1000D000E9140008B7010008B7010008B7010008DB
:1000E000B7010008B7010008B7010008B701000810
:1000F000B7010008B7010008B7010008B701000800
:10010000B7010008B7010008B7010008F51400089E
:10011000B7010008B7010008B7010008B7010008DF
:10012000B7010008B7010008B7010008B7010008CF
:10013000B7010008B7010008B7010008B7010008BF
:10014000B7010008B7010008B7010008B7010008AF
:10015000B7010008B7010008B7010008B70100089F
:10016000B7010008B7010008B7010008B70100088F
:10017000B7010008B7010008B7010008000000003F
:10018000B7010008B7010008DFF80CD000F068F8EC
:1001900000480047791800082805002006488047D5
:1001A00006480047FEE7FEE7FEE7FEE7FEE7FEE75C
:1001B000FEE7FEE7FEE7FEE70118000889010008F8
:1001C0002DE9F05F0546002092469B46884606468C
:1001D000814640241BE0284641464746224600F01F
:1001E0002FF853465A46C01A914110D3114618466B
:1001F000224600F016F82D1A67EB01084F462246FA
:100200000120002100F00DF817EB00094E41201EDF
:10021000A4F10104DFDC484631462A464346BDE8E6
:10022000F09F202A04DB203A00FA02F100207047F8
:100230009140C2F1200320FA03F319439040704724
:10024000202A04DB203A21FA02F00021704721FA2B
:1002500002F3D040C2F12002914008431946704792
:10026000064C074D06E0E06840F0010394E8070003
:1002700098471034AC42F6D3FFF78AFF14190008F0
:1002800034190008FEE70000014800F069B80000DA
:10029000C400002001681823CAB2103AB2FBF3F27E
:1002A000054B6FF30901032A9B5CC36500D9091D47
:1002B0008165084670470000FC18000810B501462B
:1002C00000208B698A6A4FF0C07453B1B3F5005FA8
:1002D00015D072B1012A0CD0022A0AD0032A09D102
:1002E00004E01AB1012A06D0022A03D1C96AC90161
:1002F00000D5012010BDC96AA142FAD010BD002A64
:10030000F7D0012AF2D0022AF3D0032AF3D010BD8D
:1003100030B50468256825F480252560046863608D
:100320008368402B036803D099600068C26030BDC9
:100330009A600068C16030BD704790F8351002299E
:1003400003D08021416501207047052180F83510D8
:100350000068016821F00101016000207047000081
:100360002DE9F84304464FF00009CDF800906348AA
:100370004FF41651A56D0068B0FBF1F72E6894F8A4
:100380005C10082000FA01F131420FD021680A68A0
:1003900052070BD50A6822F004020A6094F85C1038
:1003A0008840A860606D40F00100606594F85C10C2
:1003B0004FF0010808FA01F0304208D0216849697D
:1003C000090604D5A860606D40F00200606594F8ED
:1003D0005C1004208840304208D0216809688907F1
:1003E00004D5A860606D40F00400606594F85C106E
:1003F00010208840304218D021680968090714D5B8
:10040000A86020680168490304D50068000308D586
:10041000A16C07E00168C90503D4016821F0080157
:100420000160216C09B12046884794F85C102020B7
:100430008840304231D021680968C9062DD5A860AE
:1004400094F8350005282068016806D0490347D58F
:10045000006800031DD4616C1CE021F016010160EE
:100460002068416921F080014161206C08B9A06CCD
:1004700020B12068016821F00801016094F85C1047
:100480003F208840A86084F8349084F83580216D3E
:100490001FE0E16B09B120468847606D00282BD032
:1004A000606DC00714D0052084F83500206801680D
:1004B00021F0010101600098401C0090B84203D86F
:1004C00020680068C007F6D184F8349084F835803D
:1004D000E16C002910D001B02046BDE8F043084788
:1004E0000168C905D5D4016821F01001016084F8C4
:1004F000349084F83580CCE7BDE8F8831000002004
:100500002DE9F041044600F091F906465CB1002562
:1005100084F83450022084F835002068016821F006
:10052000010101600DE00120BDE8F08100F07EF9DD
:10053000801B052805D920206065032084F835003C
:10054000F2E720680068C007F0D1226811682048EF
:100550000140D4E901031843D4E903363343184377
:1005600063691843A3691843E3691843236A18436E
:100570000843616A042903D1D4E90B1319430843E2
:10058000106020684069666A20F0070130460E431B
:10059000012704280CD1A06A0643E06A40B1204636
:1005A000FFF78CFE20B14020606584F83570BAE713
:1005B000206846612046FFF76DFE94F85C203F21DD
:1005C00091408160656584F835700020ACE70000DB
:1005D0003F8010F02DE9F0410446866D90F834001C
:1005E000002501280DD0012084F8340094F83570DE
:1005F0000020012F07D084F8340002252846BDE8EA
:10060000F0810220FBE7022784F835706065204600
:10061000FFF77EFE94F85C103F208840B0602068B1
:10062000016841F0160101602068416941F08001D4
:100630004161206C20B12068016841F0080101602F
:100640002068016841F001010160D7E770B50446F8
:1006500000F0ECF80546601C02D004480078044421
:1006600000F0E4F8401BA042FAD370BD0400002063
:100670002DE9F84FDFF87CB100224FF001084FF070
:10068000030A4FF00F090BF1040E00BF0B6808FAC4
:1006900002F42340A3426ED14D68022D01D0122DE9
:1006A0000ED1D50800EB850CDCF820505607F70E6C
:1006B00009FA07F6B5430E69BE402E43CCF8206018
:1006C000066855000F790AFA05FC07F0030726EAC9
:1006D0000C06AF40374307604E68012E05D0022E4E
:1006E00003D0112E01D0122E0ED18668CF6826EAD3
:1006F0000C06AF40374387604668A6430C79C4F3C5
:100700000014944034434460C6688C6826EA0C06A2
:10071000AC403443C4604C68E40065D5364C256871
:1007200045F480452560246822F0030504F48044E4
:100730000094324C2E19D6F8084895072F0F09FA65
:1007400007F5AC432E4DA84201D1002524E02D4DE4
:10075000A84201D101251FE02B4DA84201D102255D
:100760001AE02A4DA84201D1032515E0284DA842E0
:1007700002D1042510E037E0264DA84201D105251D
:100780000AE0254DA84201D1062505E0234DA842E7
:1007900001D1072500E00825BD402543C6F80858CB
:1007A000DBF800405D464E689C43F60300D51C43D1
:1007B0002C60DEF8004075464E689C43B60300D5B9
:1007C0001C432C600B4D08352C684E689C43F60288
:1007D00000D51C432C60074D0C352C684E689C439B
:1007E000B60200D51C432C60521C102AFFF44EAFF9
:1007F000BDE8F88F003C0140443802400030014021
:10080000000002400004024000080240000C0240C8
:10081000001002400014024000180240001C024078
:100820000AB1816170470904FBE700000148806854
:1008300070470000040000200248816802781144DB
:1008400081607047040000200B4810B5016841F436
:1008500000710160016841F480610160016841F448
:1008600080710160032000F097F8002000F006F886
:1008700000F024F8002010BD003C024070B50D4D82
:1008800004464FF47A712878B1FBF0F00A49096800
:10089000B1FBF0F000F08DFD48B9102C07D200221A
:1008A0002146501E00F058F800206C6070BD0120F9
:1008B00070BD000004000020100000201F4808B593
:1008C000016841F480410160006800F480400090BC
:1008D0001A48001F016841F080510160006800F073
:1008E00080500090032000F057F8002211466FF06E
:1008F0000B0000F031F8002211466FF00A0000F002
:100900002BF8002211466FF0090000F025F80022B4
:100910001146501F00F020F800221146101F00F071
:100920001BF800221146901E00F016F80022BDE8C8
:1009300008401146501E00F00FB800004438024035
:1009400000F01F02012191404009800000F1E020E9
:10095000C0F8001170470000F0B40E4B1B680C4645
:10096000C3F30223C3F10705042D00D90425191D83
:10097000072901D2002300E0DB1E012606FA05F15B
:10098000491E214099409E40761E16403143F0BCDE
:1009900000F098BD0CED00E0064900F00702086881
:1009A0004FF6FF03184040EA0220034A1043086054
:1009B000704700000CED00E00000FA052DE9F0475B
:1009C0000E46050065D0DFF81481D8F80000F7B2B4
:1009D00000F00F00B04207D288F80070D8F800008D
:1009E00000F00F00B04254D128683D4C810712D569
:1009F000400703D5206840F4E050206028780007C5
:100A000003D5206840F4604020602068A96820F089
:100A1000F000084320602878C0072DD0304968686E
:100A20000839012812D0022813D0032811D00968F0
:100A3000890700292DDA216821F003010143216093
:100A4000FFF7F4FE814641F2883A0EE00968890317
:100A5000EFE709688901ECE7FFF7E8FEA0EB090181
:100A6000514502D90320BDE8F0872068696800F08D
:100A70000C00B0EB810FEFD1D8F80010404601F028
:100A80000F01B14207D90770006800F00F00B042B3
:100A900001D00120E7E72878400705D52068E968FC
:100AA00020F4E050084320602878000706D520682D
:100AB000296920F4604040EAC100206000F01CF881
:100AC0002168084AC1F30311515CC8400649086017
:100AD0000020FFF7D3FE0020C5E70000003C0240E5
:100AE000083802400419000810000020014800687E
:100AF0007047000010000020154810B5006810F085
:100B00000C02144813D01449042A0FD0082A0ED11D
:100B10000F4C241F2268236802F03F025B0207D5B6
:100B20002068C0F38810A0FB010106E0084610BD54
:100B30002168C1F38811A1FB00010023FFF740FBEE
:100B40002168C1F30141491C4900B0FBF1F010BD1F
:100B5000083802400024F40040787D012DE9F84F68
:100B6000050076D02878DFF8F8B2BE4CC00749D02F
:100B7000DBF800105846C1F38101012908D0006854
:100B8000C0F3810002280AD1201D0068400206D56A
:100B90002068800336D568680028E2D032E06868B3
:100BA000B0F5803F10D0B0F5A02F206810D020F411
:100BB00080302060206820F4802020606868A0B128
:100BC000FFF734FE06460CE0206840F48030F4E77E
:100BD00040F480202060F7E7FFF728FE801B6428A0
:100BE00073D820688003F7D50CE0FFF71FFE064698
:100BF00005E000BFFFF71AFE801B6428F0D82068CC
:100C00008003F7D42878DFF8608280074FF000096E
:100C10003ED5DBF80010584611F00C0F09D00068E3
:100C2000C0F3810002280BD18D48001F00684002EC
:100C300006D42068800715D5E868012809D111E09D
:100C4000E868B8B10120C8F80000FFF7EFFD0646DC
:100C500005E002E1FFF7EAFD801B0228C0D820680A
:100C60008007F7D52068296920F0F80040EAC10024
:100C700020600DE0C8F80090FFF7D8FD064604E0BC
:100C8000FFF7D4FD801B02281FD820688007F7D407
:100C90002878000722D5724E744869696C3671B1A4
:100CA00001210160FFF7C2FD074604E0FFF7BEFD2A
:100CB000C01B022809D830688007F7D50EE0C0F8BD
:100CC0000090FFF7B3FD074605E083E0FFF7AEFDB8
:100CD000C01B02287ED830688007F7D428784007E8
:100CE00068D5DFF87CA100270AF1380ADAF800009D
:100CF000C0000BD4DAF8001041F08051CAF800109F
:100D0000DAF80000012700F080500090584E30685B
:100D1000C00510D4306840F480703060FFF786FD65
:100D2000009005E0FFF782FD0099401A022851D893
:100D30003068C005F6D54A4EA868683601280FD03D
:100D40000528306810D020F001003060306820F0B5
:100D500004003060A868B8B1FFF768FD00900FE0AC
:100D6000306840F00100F4E740F004003060F7E73D
:100D7000FFF75CFD0099411A41F28830814264D846
:100D800030688007F4D50EE0FFF750FD009007E0D3
:100D9000FFF74CFD0099411A41F28830814254D846
:100DA00030688007F4D42FB1DAF8001021F08051B8
:100DB000CAF80010A869C0B3DBF80010C1F38101C4
:100DC00002294AD00228484607D0C8F86000FFF739
:100DD0002DFD00E039E005463AE04746C8F86000DE
:100DE000FFF724FD064604E0FFF720FD801B0228E4
:100DF0002BD820688001F7D4D5E907010843A96AF8
:100E00001C4A490802EB01416A6A41EA821108431F
:100E100095F82C1040EA01611148001F0160012083
:100E20003866FFF703FD054605E014E0FFF7FEFC1A
:100E3000401B022809D820688001F7D50BE000BFCD
:100E4000FFF7F4FC401B022802D90320BDE8F88F0D
:100E500020688001F4D40020F8E70120F6E70000C4
:100E6000083802400038024000004742800E4742E6
:100E7000007000400000FFFF7047000038B50446D6
:100E80000068426881684B0605D4CB0703D053063F
:100E900001D5216C04E08B0707D5130605D5616CDD
:100EA00001B02046BDE83040084711F4B07F48D07B
:100EB000930646D54B060AD594F85130032B3DD006
:100EC000636D43F004036365C368836800938B0616
:100ED00009D5636D43F0010363658368009303687C
:100EE00023F040030360C80506D5606D40F008009C
:100EF0006065206880680090606D002821D02068BF
:100F0000416821F0E0014160012084F85100900720
:100F100018D02068416821F0030141600B4DE06C5E
:100F200018B10565E06CFFF708FAA06C002808D03E
:100F30000565A06CBDE83840FFF7FFB9C16880685F
:100F4000009038BD2046FFF797FF38BD9D1500087B
:100F500070B5040005D00025A56294F8510010B1C9
:100F600006E0012070BD84F85050204600F030F8B3
:100F7000022084F851002068016821F040010160DE
:100F8000D4E901010843D4E903121143084361691C
:100F90000843218B01F400710843E1690843216A89
:100FA0000843A16A084321680860A069042101EA96
:100FB0001040616A0843216848602068C16921F4D3
:100FC0000061C1616565012084F85100002070BD99
:100FD0002DE9F04707463A4A0168002439480225BE
:100FE0000326DFF8E4A086B04FF48069914222D155
:100FF000016841F480410160006802AA00F4804069
:1010000005900C20CDE90005052782E8D00069464F
:101010005046FFF72DFB02AA694682E8D000CDE9D1
:1010200000952A48FFF724FB002211462420FFF7F1
:1010300093FC24203EE0264A91423DD1016841F4D0
:1010400000410160006802AA00F4004005901020F1
:10105000CDE900054FF0060882E8500169461D48B9
:10106000FFF706FB4FF4E050CDE9000502AA694600
:1010700082E850015046FFF7FBFA184D1648C5E9C3
:101080000004AC60C5E9034980156C61C5E9064000
:101090002C6228466C62FFF733FA18B1A32110A026
:1010A00000F0D9FBFD64002211463320AF63FFF747
:1010B00053FC3320FFF744FC06B0BDE8F087000086
:1010C000003800404038024000080240000402405E
:1010D000003C00400000024010600240C4000020BC
:1010E0002E2E2F5372632F73746D333266347878DB
:1010F0005F68616C5F6D73702E6300002DE9F041D5
:10110000044600268068042318B96568B5F5827F17
:101110000DD094F85050012D12D0012584F8505074
:1011200094F851700025012F0DD0022646E084F876
:1011300051302046BDE8F04113460A4600F04AB857
:101140000220BDE8F08171B16AB184F85130656563
:10115000A163A287E28725646564A586E586B0F56C
:10116000004F02D006E0012628E02068016821F443
:1011700080410160E16C13480864E16C1248C86367
:10118000E16C1248C864E06C0565E38F2168A26BCE
:101190000C31E06CFFF71EFA20680168490603D4A1
:1011A000016841F0400101602068416841F0200180
:1011B00041602068416841F00101416084F850506D
:1011C0003046BEE7CF150008E3150008AD1500084E
:1011D000704770472DE9F041044690F85000002612
:1011E00001280CD0012084F8500094F8510000250B
:1011F000676801280CD0B7F5827F07D102E0022092
:10120000BDE8F081A7680FB9042801D0022651E09B
:1012100031B12AB123B194F85100012802D004E081
:10122000012647E0052084F8510065652163A38607
:10123000E386A263A387E3872564656494F851007D
:1012400004283BD0E16C204808642048E16CC86366
:10125000E16C1F48C864E06C0565E38F2168A26BF0
:101260000C31E06CFFF7B6F92068416841F00101EC
:101270004160A06C0564A06CC563A06CC564A06CE3
:101280000565E38E2268216B0C32A06CFFF7A2F992
:1012900020680168490603D4016841F040010160FB
:1012A0002068416841F0200141602068416841F0B8
:1012B0000201416084F850503046A1E7E16C0548D6
:1012C00008640548C2E70000D91500083516000873
:1012D000AD150008CF150008E315000830B590F8EB
:1012E00050300024012B0BD0012380F85030002314
:1012F00041B13AB190F85150012D05D002242DE0B2
:10130000022030BD012429E0032580F851504365B7
:1013100001638286C28683638387C3870364C1684F
:1013200009B1124900E0124941648168B1F5004FEA
:1013300004D101680A6842F480420A608168002989
:1013400001684A680ED042F0A0024A6001680A684B
:10135000520603D40A6842F040020A6080F8503016
:10136000204630BD42F08002EFE7000085160008FD
:10137000A5160008054900680968884204D10122C1
:1013800040210348FFF74CBA7047000014000020CA
:1013900000080240704770474FF0E02104280869B8
:1013A00003D020F004000861704740F00400FAE721
:1013B000704710B5401EB0F1807F01D3012010BDF1
:1013C0004FF0E02460610F21601700F07BF80020EF
:1013D000A06107202061002010BD10B5FFF7E8FFD5
:1013E00010BDFEE730B5174887B00024016841F012
:1013F00004010160016801F004010591016841F0F8
:1014000001010160016801F001010591016841F0ED
:101410000201016000680C4D00F0020005900122FD
:1014200040212846FFF7FCF9402000900120CDE93B
:1014300001040320039069462846FFF719F907B015
:1014400030BD000030380240000802400E4810B5A0
:101450000C4901604FF48271416000218160C160DC
:101460004FF400720161C0E90512C161016241627D
:1014700081620A21C162FFF76BFD002800D0FEE700
:1014800010BD000000380040140000200B4810B5CB
:1014900009490160002141608160C16001614161D1
:1014A00081610162416281620A21C162FFF750FDE0
:1014B000002800D0FEE710BD003C00406C0000207A
:1014C000FEE770470907090E002806DA00F00F0052
:1014D00000F1E02080F8141D704700F1E02080F852
:1014E00000147047704700000148FFF7C7BC0000B8
:1014F000140000200148FFF7C1BC00006C00002070
:1015000038B50B46009204460022802100F0D9F83D
:10151000002804D0606D40F020006065032038BDD5
:1015200038B504461C4845F6C0510068B0FBF1F0E0
:10153000642148430090FFF779F90246206800993A
:101540004B1E009304D2616D41F02001616502E001
:1015500081688907F3D5416821F0A00141606421C9
:101560002046FFF7CDFF18B1606D40F020006065A8
:10157000A06818B92068C16880680090012084F8CC
:101580005100606D0028204602D0FFF775FC38BD81
:10159000FFF7F0FE38BD00001000002010B5806B92
:1015A0000021C187C186FFF767FC10BD10B5806BB5
:1015B00001684A6822F003024A60416D41F010015F
:1015C0004165012180F85110FFF756FC10BD10B5A0
:1015D000806BFFF7FEFD10BD10B5806BFFF7DBFEE3
:1015E00010BD10B50146806B09680968C9051ED495
:1015F00001684A6822F003024A604168B1F5827FBF
:101600000BD18168B1F5004F02D0B1F5806F04D1E4
:1016100001680A6822F040020A600021C1870121A6
:1016200080F85110416D11B1FFF726FC10BDFFF796
:10163000CFFD10BD70B50546846BFFF7F7F8024685
:1016400028680068C00519D464212046FFF758FFB8
:1016500018B1606D40F0200060652068416821F09D
:10166000030141600020E086E087012084F85100FA
:10167000606D18B12046FFF7FFFB70BD2046FFF7F5
:1016800089FE70BD016B02680988D160016B891CFD
:101690000163C18E491EC186C18E002901D1FFF7A9
:1016A0003FBF7047016B4A1C0263026809781173DF
:1016B000C18E491EC186C18E002901D1FFF730BFFE
:1016C00070472DE9F0411D4617460E460446DDF8E9
:1016D000188035E0681C33D02DB1FFF7A7F8A0EBD8
:1016E0000800A8422CD32068416821F0E001416045
:1016F0006068B0F5827F0BD1A068B0F5004F02D0D2
:10170000B0F5806F04D12068016821F040010160CC
:10171000A06AB0F5005F0AD1206801684DF6FF723B
:10172000114001602068016841F40051016001200E
:1017300084F85100002084F850000320BDE8F081B7
:101740002068806836EA000004D00020B842C1D189
:101750000020F3E70120F9E7704710B5FFF76CF8B8
:10176000BDE81040FFF739BE30B5234893B00024E0
:10177000016841F080510160006800F080501190D4
:101780001E48016841F4804101600068022500F4B0
:101790008040119001200390102004900095069540
:1017A0000820CDE907405420CDE9090504200B901D
:1017B0006846FFF7D3F900B1FEE70F20CDE90C052D
:1017C0008020CDE90E0401210CA81094FFF7F6F853
:1017D00000B1FEE7FFF78AF94FF47A71B0FBF1F040
:1017E000FFF7E7FD0420FFF7D7FD00221146501E4A
:1017F000FFF7B2F813B030BD40380240007000402F
:101800001048016841F4700101600F48016841F01F
:10181000010101600C4A00210832116002680B4B83
:101820001A400260031D0A4A1A60026822F48022EC
:10183000026005480C300160024958068039086092
:101840007047000088ED00E000380240FFFFF6FE20
:1018500010300024FEE7FEE702E008C8121F08C1AE
:10186000002AFAD170477047002001E001C1121F21
:10187000002AFBD17047000008B5FEF7E5FFFFF72F
:1018800073FFFFF7AFFD1948016841F400110160D3
:101890000068002200F40010009011460B20FFF7B2
:1018A0005BF80B20FFF74CF8FFF7D0FDFFF7EEFDDC
:1018B00001220F490F48FFF721FC0D4C0E4D641E0D
:1018C0004FF47A76002240212846FEF7A9FF084906
:1018D00008480122491E5838FFF700FD3046FEF740
:1018E000B5FE2178491C2170ECE700003038024039
:1018F000010000206C0000200008024000061016C5
:1019000000061016000000000000000001020304A1
:101910000607080934190008000000201400000020
:101920005818000848190008140000201405000089
:1019300068180008200000000100000010000000EE
:08194000000000000024F40087
:040000050800018965
:00000001FF
