:020000040800F2
:10000000580500209D010008EF2300086F2200081A
:10001000ED230008DF080008592B0008000000004D
:100020000000000000000000000000001324000891
:10003000890B00080000000011240008A524000816
:10004000B7010008B7010008B7010008B7010008B0
:10005000B7010008B7010008B7010008B7010008A0
:10006000B7010008710F0008910F0008B7010008E0
:10007000B7010008B7010008B7010008B701000880
:10008000B7010008B7010008B7010008B701000870
:10009000B7010008B7010008B7010008B701000860
:1000A000B7010008B7010008B7010008B701000850
:1000B0007D250008B7010008B7010008B701000856
:1000C000B7010008B7010008B7010008B701000830
:1000D000B7010008B7010008B7010008B701000820
:1000E000B7010008B7010008B7010008B701000810
:1000F000B7010008B7010008B7010008B701000800
:10010000B7010008B7010008B7010008B7010008EF
:10011000B7010008B7010008B7010008B7010008DF
:10012000B7010008B7010008B7010008B7010008CF
:10013000B7010008B7010008B7010008B7010008BF
:10014000B7010008B7010008B7010008B7010008AF
:10015000B7010008B7010008B7010008B70100089F
:10016000B7010008B7010008B7010008B70100088F
:10017000B7010008B7010008B7010008000000003F
:10018000B7010008B7010008DFF80CD000F058FBF9
:1001900000480047E5380008580500200648804719
:1001A00006480047FEE7FEE7FEE7FEE7FEE7FEE75C
:1001B000FEE7FEE7FEE7FEE72925000889010008C3
:1001C0002DE9F05F0546002092469B46884606468C
:1001D000814640241BE0284641464746224600F01F
:1001E00028FA53465A46C01A914110D31146184670
:1001F000224600F00FFA2D1A67EB01084F462246FF
:100200000120002100F006FA17EB00094E41201EE4
:10021000A4F10104DFDC484631462A464346BDE8E6
:10022000F09FD2B201E000F8012B491EFBD27047CB
:100230000022F6E710B513460A4604461946FFF7B2
:10024000F0FF204610BD2DE9FE4F804681EA0300F5
:10025000C00F0C46009021F0004123F00045B8EBA0
:100260000200A94105D24046214690461C460B4655
:10027000024623F00040104347D0270DC7F30A0081
:10028000C3F30A510290401A019040286BDAC3F37D
:10029000130040F4801B0098924620B10023D2EB5B
:1002A000030A63EB0B0B01985946C0F1400250461C
:1002B00000F0B0F906460D4650465946019A00F046
:1002C000C8F910EB08006141002487EA115284EA62
:1002D000E7731A4340D0009A62B3019A012A4FEAA9
:1002E000075215DC001B61EB02014FF0004202EAED
:1002F0000752CDE90042001C41F5801132462B46E1
:1003000000F0FFF903B0BDE8F08F40462146F9E761
:10031000001B61EB0201001C41F5801300185B41DA
:100320002018A2F5001747EB030140EAD570B61973
:100330006D4111E06D084FEA360645EAC0754FEA97
:100340000752001B61EB0201001C41F580114908B6
:100350004FEA30000019514132462B4603B0BDE848
:10036000F04F00F0BFB90098012240000023D0EB0D
:10037000020263EBE073009821464FEAE074B8EBA9
:10038000000061EB0401E9E783F000435BE781F0E3
:10039000004158E72DE9FE4F81EA030404F00044D0
:1003A00021F0004100944FF0000B23F0004350EA8D
:1003B00001045ED052EA03045BD0C3F30A54C1F3D4
:1003C0000A552C44A4F2F3340194A0FB0254C1F367
:1003D000130141F48011C3F3130343F4801301FBB1
:1003E000024400FB034E840A970A44EA815447EA18
:1003F0008357A4FB076802958D0A05FB07854FEA22
:10040000932C04FB0C542705029D4FEA065847EA3B
:100410001637B5EB08056EEB070C870E920E47EA10
:10042000811742EA8312A7FB0201B6EB0B0164EBD2
:1004300000042B0D43EA0C335E1844EB1C50DA46E3
:100440005146E7FB0201C5F313044FEA0B3343EABD
:1004500014534FEA0432019C43EA0603A4F10C044E
:100460000294009CCDE900B400F04BF903B0BDE864
:10047000F08F00200146F9E72DE9F04D81EA0304F1
:1004800004F0004B21F0004514464FF0000A23F021
:10049000004150EA050220D054EA01021DD0C5F304
:1004A0000A570246C5F31303C1F31300C1F30A56FA
:1004B00040F4801543F48013A7EB0608101BD646C2
:1004C00008F2FD3873EB050002D308F1010801E0E2
:1004D00092185B41B8F1000F03DA00200146BDE835
:1004E000F08D00204FF48011064684460EE0171B65
:1004F00073EB050705D3121B63EB050306434CEAB8
:10050000010C49084FEA300092185B4150EA01079C
:10051000EDD152EA030012D082EA040083EA050119
:10052000084305D0101BAB4106D20122002306E090
:1005300000224FF0004302E06FF0010253101AEB6B
:1005400006004CEB085110EB0A0041EB0B01BDE833
:10055000F04D00F0C7B800F0004230F000400AD083
:10056000C10D01F56071C0F3160042EA0151C208E5
:1005700040071143704700200146704730B5041E04
:1005800071F1000404DB4FF00044404264EB0101D0
:10059000141E73F1000405DB1C464FF00043524269
:1005A00063EB04038B4208BF824230BD30B5041EAA
:1005B00071F1000404DB4FF00044404264EB0101A0
:1005C000141E73F1000405DB1C464FF00043524239
:1005D00063EB0403994208BF904230BD01F0004331
:1005E00030B421F0004150EA010206D00A0DA2F514
:1005F0006072C1F31301002A02DC30BC0020704796
:10060000440F44EAC104C100E01830BC00EBC25002
:1006100000F031B8202A04DB203A00FA02F1002071
:1006200070479140C2F1200320FA03F31943904030
:100630007047202A04DB203A21FA02F0002170479B
:1006400021FA02F3D040C2F120029140084319463A
:100650007047202A06DBCB17203A41FA02F043EA22
:10066000E07306E041FA02F3D040C2F1200291406B
:100670000843194670470029A8BF7047401C49002D
:1006800008BF20F00100704710B4B0FA80FC00FAF7
:100690000CF050EA010404BF10BC704749B1CCF122
:1006A000200421FA04F411FA0CF118BF01212143AE
:1006B0000843A3EB0C01CB1D4FEA00614FEA102069
:1006C00042BF002010BC704700EBC350104400290B
:1006D000A4BF10BC7047401C490008BF20F00100B7
:1006E00010BC704710B5141E73F1000408DA401CEA
:1006F00041F1000192185B411A4301D120F0010041
:1007000010BD2DE9F04D92469B4611B1B1FA81F230
:1007100002E0B0FA80F220329046FFF77BFF0446F9
:100720000F4640EA0A0041EA0B0153465A46084385
:1007300013D0114653EA010019D0C8F140025046C7
:10074000FFF777FF05460E46504659464246FFF7EB
:1007500061FF084305D0012004E020463946BDE88A
:10076000F08D0020054346EAE0762C4337430A9893
:100770006305E40AA0EB08000022FD0A44EA47549E
:100780000A3002D500200146E9E701051019694148
:10079000DDE9084500196941BDE8F04DA2E72DE902
:1007A000F04D00231A461B1A8A4103DB0020014644
:1007B000BDE8F08DC1F30A52C1F3130141F4801575
:1007C0004FF0000BD10702D100186D41521E0027D7
:1007D000044640F2FF11384601EB620A3E4680466D
:1007E000024600204FF48011FFF723FFC219714128
:1007F000BB1846EB0100B4EB030C75EB000C04D303
:10080000E41A65EB000517460E46241908F10100AD
:100810006D4180463428E3DDF91946EB0600091BDB
:10082000A84103D24FF0FF32134601E000221346E5
:100830001BEB070046EB0A51BDE8F04DFFF752BF36
:10084000064C074D06E0E06840F0010394E807001D
:1008500098471034AC42F6D3FFF79AFC783C000876
:10086000983C00080EB5C10F80EAE0700844CA0742
:10087000002140F233438DE80E000A460B46FFF795
:1008800040FF03B000BD0EB540F23341029100219C
:10089000CDE900110A460B46FFF733FF03B000BD58
:1008A00070B5C1F30A5201F000450024C1F31301F1
:1008B00040F2FF3341F480119A4201DA002070BD0A
:1008C00040F233439A42A2F2334203DC5242FFF732
:1008D000B0FE00E090402C43F1D0404270BDFEE7F6
:1008E00010B5314C2DED088BF0EE608AB0EE409AD9
:1008F000206BFFF730FE41EC100B02F0B5FA39EE39
:10090000288AB0EE401AF0EE601AB0EE41AAF0EE7E
:1009100061AA18EE100AFFF71EFE53EC1A2BFFF720
:1009200039FD9FED22BB53EC1B2BFFF733FDFFF787
:1009300055FE00EE100AD4ED090A30EE200A84EDCF
:10094000090A206BFFF707FE41EC100B02F0F0FAEA
:10095000B0EE40AAF0EE60AA18EE100AFFF7FBFD19
:1009600053EC1A2BFFF716FD53EC1B2BFFF712FD70
:10097000FFF734FE00EE100AD4ED0A0A002030EE34
:10098000200A79EE680A84ED0A0A94ED121A80EEC4
:10099000810AD4ED0B0A30EE200A84ED0B0AA06028
:1009A000E060BDEC088B10BD0000002000000000DE
:1009B0000000E03F70B56F4C2DED068B94ED06AA5C
:1009C0002AEE008A94ED070A60EE208A20EE280ABB
:1009D00010EE100AFFF7BFFD2AEE080A41EC190BD2
:1009E00010EE100AFFF7B7FD41EC100BB0EE491AFC
:1009F000F0EE691A00F0D4F8B0EE401A94ED070A50
:100A0000F0EE601AB0EE41AA20EE280AF0EE61AADC
:100A100010EE100AFFF79FFD94ED060A41EC190B4A
:100A200020EE080A10EE100AFFF795FD41EC100BBE
:100A3000B0EE491AF0EE691A00F0A7F8606CB0EE5B
:100A4000409AF0EE609A0546FFF785FD41EC180BE1
:100A5000206A0646FFF77FFD53EC1A2BFFF79AFC3E
:100A600053EC182BFFF796FC41EC180B6069FFF76D
:100A700072FD53EC182BFFF7E6FBFFF7AFFD08EE16
:100A8000100A284684ED058AFFF765FD41EC1A0B34
:100A90003046FFF760FD53EC192BFFF77BFC53EC5E
:100AA0001A2BFFF777FC41EC190B2069FFF753FD78
:100AB00053EC192BFFF7C7FBFFF790FD00EE100A70
:100AC0002D4910EE100A9FED2D1A84ED040A88427C
:100AD00001DDB0EE410ADFED2A0AB5EEC00A84ED71
:100AE000040AF1EE10FA01D2B0EE600A18EE100A14
:100AF00084ED040A884201DDB0EE418A84ED058A66
:100B0000B5EEC08AF1EE10FA01D2B0EE608A84ED43
:100B1000058AD4ED0E1A94ED0D1AD4ED0A0A94ED5F
:100B2000090A00F05FFA84ED130AD4ED140AB4EE5A
:100B3000E00AF1EE10FA01D8012500E0002594ED5D
:100B4000040A2B460421BDEEC00A0E4810EE102AFE
:100B500001F08EFC94ED050A2B46BDEC068BBDEE34
:100B6000C00A0821BDE8704010EE102A054801F0C7
:100B70007FBC0000000000200000C8420000C84206
:100B800000000000CC000020704710B500F008F80D
:100B900051EC100B81F0004141EC100B10BD000036
:100BA00010B52DED040B2DED108B90B0B0EE418AF9
:100BB000F0EE618AB0EE409AF0EE609A9FEDDABBFB
:100BC0009FEDDBCB53EC1B2B51EC190BFFF7EEFC2D
:100BD00003D2B0EE4B9AF0EE6B9A53EC1C2B51EC17
:100BE000190BFFF7CBFC03D2B0EE4C9AF0EE6C9AE7
:100BF0008DED209B53EC1B2B51EC180BFFF7D6FC13
:100C000003D2B0EE4B8AF0EE6B8A53EC1C2B51EC06
:100C1000180BFFF7B3FC03D2B0EE4C8AF0EE6C8AEF
:100C2000B0EE48AAF0EE68AA9FEDC39BB0EE494A29
:100C3000F0EE694A9FEDC2EBB0EE4C8AF0EE6C8AA2
:100C4000B0EE4E3AF0EE6E3AB0EE482AF0EE682A78
:100C50009FEDBDCB9DED200BB0EE4C1AF0EE6C1A63
:100C600002F0AEFEB0EE40FAF0EE60FA9FEDB8DBB7
:100C7000B0EE493AF0EE693AB0EE4D4AF0EE6D4A08
:100C8000B0EE492AF0EE692AB0EE4E1AF0EE6E1A76
:100C90009DED200B02F094FEB0EE40EAF0EE60EA2B
:100CA0009FEDAD4B9FEDA03BB0EE4D2AF0EE6D2ACF
:100CB000B0EE491AF0EE691A9DED200B02F080FEAD
:100CC000B0EE40DAF0EE60DAB0EE494AF0EE694A92
:100CD000B0EE483AF0EE683AB0EE482AF0EE682AF4
:100CE000B0EE4C1AF0EE6C1AB0EE4A0AF0EE6A0A58
:100CF00002F066FEB0EE40CAF0EE60CA9FED8A4B8D
:100D0000B0EE493AF0EE693AB0EE492AF0EE692ABF
:100D1000B0EE481AF0EE681AB0EE4A0AF0EE6A0A2F
:100D200002F04EFEB0EE40BAF0EE60BA9FED8A4B94
:100D30009FED7D3B9FED7C2BB0EE491AF0EE691ADA
:100D4000B0EE4A0AF0EE6A0A02F03AFEB0EE40AAAD
:100D5000F0EE60AA9FED820B8DED020B8DED009BF6
:100D60009FED810B8DED0E0B9FED6F9B53EC1C2BBC
:100D700051EC1F0BFFF70EFB41EC100B53EC1B2B40
:100D80008DED0C0B51EC1F0BFFF704FB41EC100B2E
:100D900053EC1A2B8DED0A0B51EC1F0BFFF7FAFAEF
:100DA00041EC100B53EC1C2B8DED080B51EC1E0B82
:100DB000FFF7F0FA41EC100B53EC1B2B51EC1E0B20
:100DC000B0EE40FAF0EE60FAFFF7E4FA41EC100BF7
:100DD00053EC1A2B8DED060B51EC1E0BFFF7DAFAD4
:100DE00041EC100B53EC1C2B8DED040B51EC1D0B47
:100DF000FFF7D0FA41EC1C0B53EC1B2B51EC1D0BF5
:100E0000FFF7C8FA41EC1E0B53EC1A2B51EC1D0BEB
:100E1000FFF7C0FA41EC1B0B9DED0CABB0EE4F1A87
:100E2000F0EE6F1A9DED0A0B02F0ACFDB0EE40DA69
:100E3000F0EE60DAB0EE4C1AF0EE6C1A9DED060B97
:100E400002F0A0FDB0EE401AF0EE601A9DED080B26
:100E500002F098FDB0EE40CAF0EE60CAB0EE4E1A55
:100E6000F0EE6E1A9DED040B02F08CFDB0EE40EA40
:100E7000F0EE60EA53EC1D2B51EC1A0BFFF7E3F98F
:100E800053EC1C2BFFF7DFF953EC1E2BFFF7DBF9BC
:100E900053EC1B2BFFF7D7F941EC1F0B53EC1B2B2B
:100EA00051EC190BFFF776FA9DED0E0B41EC1B0B85
:100EB00053EC1E2B51EC100BFFF76CFA9DED009BD1
:100EC00041EC1E0B53EC1C2B51EC190BFFF762FA93
:100ED0009DED020B41EC190B53EC1D2B51EC100B4B
:100EE000FFF758FA41EC1C0B53EC1A2B51EC180B82
:100EF000FFF750FA53EC1C2BFFF7A5F953EC192B15
:100F0000FFF7A1F953EC1E2BFFF79DF953EC1B2BB8
:100F1000FFF799F953EC1F2BFFF7AEFA10B041EC35
:100F2000100BBDEC108B1FBD000000000000F03F57
:100F3000000000000000F0BF000000000000000002
:100F40009A9999999999B9BF9A9999999999F1BF4B
:100F50009A9999999999B93F9A9999999999F13F3B
:100F60009A9999999999D9BF9A9999999999D93FA3
:100F700005480168491C016004480168491C01607A
:100F8000082000F0C9B9000008000020740000200B
:100F900005480168491C016004480168491C01605A
:100FA000102000F0B9B900000C00002078000020EB
:100FB00000EE100AF0EE000A9FED091AB8EEC00A22
:100FC00020EE200ADFED050A20EE200AF1EE0C0AE1
:100FD00060EE200A80EE810A70470000C3F54840A9
:100FE00000E6AA4830EE410A70EEE10A10B520EEA4
:100FF000000A00EEA00A10EE100AFFF7ACFA41EC6E
:10100000100B01F0F9FF51EC100BFFF7E7FA00EEBF
:10101000100A10BD074810B570EEC00A90ED111A05
:1010200080EE810A10EE100AFFF795FA41EC100BE2
:1010300010BD00000000002030EE600A10B510EE78
:10104000100AFFF788FA41EC100B10BD10B52DED1A
:10105000028BB0EE608AF0EE408AFFF7C3FF1648BD
:10106000D0ED140AB4EEE00AF1EE10FA01D2C17824
:1010700031B1C0ED0D8A80ED0E8ABDEC028B10BD42
:10108000827801214AB190ED190A80ED0D0A90EDA8
:101090001A0A80ED0E0AC170EFE742784AB190ED6E
:1010A000170A80ED0D0A90ED180A80ED0E0A817086
:1010B000E3E74170E1E700000000002010B52DEDEE
:1010C0000E8BB0EE62DAF0EE429AB0EE619AB0EEBC
:1010D00041EAB0EE608AF0EE40AA9FED8D0AB4EED0
:1010E000498AF0EE408AF1EE10FA79D07EEE690A74
:1010F00038EE490AB7EE00BAB4EEC98AF1EE00EA5A
:10110000C0EE80DA69EE880A4EEE490AC0EE808AA7
:10111000B8EE000A29EE00AAB0EE000A0DEEADBA54
:101120006DEE800A00EEA8AA00EEE9AA78EEE90AC0
:1011300060EEA0BA49EE09BA4AEEEABAF1EE10FA48
:101140002BEE000A10EE100A20D2FFF704FA2AEE66
:101150000A0A6BEE2E0A41EC1C0B00EEEB0A10EEB5
:10116000100AFFF7F8F941EC100B01F045FFB0EE63
:1011700040BAB1EE4A0AF0EE60BA10EE100AFFF77C
:10118000EAF953EC1B2BFFF7FFF81FE0FFF7E3F939
:101190002AEE0A0A6BEE2E0A41EC1C0B00EEEB0A5B
:1011A00010EE100AFFF7D7F941EC100B01F024FF05
:1011B000B0EE40BAB1EE4A0AF0EE60BA10EE100A94
:1011C000FFF7C9F953EC1B2BFFF73DF853EC1C2B31
:1011D000FFF752F9FFF702FA00EE100A4DEE808A8F
:1011E000B4EE498AF1EE10FA0ED1B4EEE9EAF1EE6E
:1011F00010FA04D2B0EE480A79EEEA8A04E003DD80
:1012000079EEAA8AB0EE480A1DEE100A30EE498A3D
:1012100078EEE98AFFF79FF941EC100B01F024FE0C
:10122000B0EE409AF0EE609A18EE900AFFF793F94C
:1012300053EC192BFFF7AEF841EC190B1DEE100A19
:10124000FFF789F941EC100B01F072FEB0EE40AAF5
:10125000F0EE60AA18EE100AFFF77DF953EC1A2B96
:10126000FFF798F853EC192BFFF78EF8FFF7B6F954
:1012700009EE100A1DEE100AFFF76DF941EC100B94
:1012800001F056FEB0EE40AAF0EE60AA18EE900A09
:10129000FFF761F953EC1A2BFFF77CF841EC1A0BBE
:1012A0001DEE100AFFF757F941EC100B01F0DCFDC1
:1012B000B0EE40BAF0EE60BA18EE100AFFF74BF944
:1012C00053EC1B2BFFF766F853EC1A2BFEF7BBFF12
:1012D000FFF784F900EE100AC9EE000A10EE900A3A
:1012E000FFF739F941EC100B01F052FC51EC100BF7
:1012F000FFF774F900EE100A3DEE400A10EE100AF6
:10130000FFF729F9BDEC0E8B41EC100B10BD00006E
:101310000000000070470000044910B50A6802424E
:1013200002D00860FFF7F6FF10BD0000143C01403A
:101330002DE9F84FDFF87CB100224FF001084FF0A3
:10134000030A4FF00F090BF1040E00BF0B6808FAF7
:1013500002F42340A3426ED14D68022D01D0122D1C
:101360000ED1D50800EB850CDCF820505607F70E9F
:1013700009FA07F6B5430E69BE402E43CCF820604B
:10138000066855000F790AFA05FC07F0030726EAFC
:101390000C06AF40374307604E68012E05D0022E81
:1013A00003D0112E01D0122E0ED18668CF6826EA06
:1013B0000C06AF40374387604668A6430C79C4F3F8
:1013C0000014944034434460C6688C6826EA0C06D6
:1013D000AC403443C4604C68E40065D5364C2568A5
:1013E00045F480452560246822F0030504F4804418
:1013F0000094324C2E19D6F8084895072F0F09FA99
:1014000007F5AC432E4DA84201D1002524E02D4D17
:10141000A84201D101251FE02B4DA84201D1022590
:101420001AE02A4DA84201D1032515E0284DA84213
:1014300002D1042510E037E0264DA84201D1052550
:101440000AE0254DA84201D1062505E0234DA8421A
:1014500001D1072500E00825BD402543C6F80858FE
:10146000DBF800405D464E689C43F60300D51C4304
:101470002C60DEF8004075464E689C43B60300D5EC
:101480001C432C600B4D08352C684E689C43F602BB
:1014900000D51C432C60074D0C352C684E689C43CE
:1014A000B60200D51C432C60521C102AFFF44EAF2C
:1014B000BDE8F88F003C0140443802400030014054
:1014C000000002400004024000080240000C0240FC
:1014D000001002400014024000180240001C0240AC
:1014E0000AB1816170470904FBE700000148806888
:1014F000704700007C000020024881680278114497
:10150000816070477C0000200B4810B5016841F4F1
:1015100000710160016841F480610160016841F47B
:1015200080710160032000F06DF8002000F006F8E3
:1015300000F024F8002010BD003C024070B50D4DB5
:1015400004464FF47A712878B1FBF0F00A49096833
:10155000B1FBF0F000F0E0FA48B9102C07D20022FD
:101560002146501E00F02EF800206C6070BD012056
:1015700070BD00007C000020880000200A4808B5EB
:10158000016841F480410160006800F480400090EF
:101590000548001F016841F080510160006800F0BB
:1015A0008050009008BD00004438024000F01F0247
:1015B000012191404009800000F1E020C0F80011B5
:1015C00070470000F0B40E4B1B680C46C3F30223B7
:1015D000C3F10705042D00D90425191D072901D2DF
:1015E000002300E0DB1E012606FA05F1491E21401A
:1015F00099409E40761E16403143F0BC00F0F8BE84
:101600000CED00E0064900F0070208684FF6FF0302
:10161000184040EA0220034A104308607047000067
:101620000CED00E00000FA052DE9F0470E4605003C
:1016300065D0DFF81481D8F80000F7B200F00F0091
:10164000B04207D288F80070D8F8000000F00F0010
:10165000B04254D128683D4C810712D5400703D5CC
:10166000206840F4E05020602878000703D5206807
:1016700040F4604020602068A96820F0F000084332
:1016800020602878C0072DD03049686808390128C3
:1016900012D0022813D0032811D009688907002925
:1016A0002DDA216821F0030101432160FFF71EFFBD
:1016B000814641F2883A0EE009688903EFE709683C
:1016C0008901ECE7FFF712FFA0EB0901514502D9B0
:1016D0000320BDE8F0872068696800F00C00B0EBDB
:1016E000810FEFD1D8F80010404601F00F01B14250
:1016F00007D90770006800F00F00B04201D0012048
:10170000E7E72878400705D52068E96820F4E0502D
:10171000084320602878000706D52068296920F44E
:10172000604040EAC100206000F036F82168084AB5
:10173000C1F30311515CC840064908600020FFF75F
:10174000FDFE0020C5E70000003C024008380240D2
:10175000A83A000888000020044805490068096884
:10176000044AC1F38221515CC840704788000020C0
:1017700008380240B83A000804480549006809687A
:10178000044AC1F34231515CC840704788000020D0
:1017900008380240B83A0008154810B5006810F043
:1017A0000C02144813D01449042A0FD0082A0ED171
:1017B0000F4C241F2268236802F03F025B0207D50A
:1017C0002068C0F38810A0FB010106E0084610BDA8
:1017D0002168C1F38811A1FB00010023FEF7F0FC92
:1017E0002168C1F30141491C4900B0FBF1F010BD73
:1017F000083802400024F40040787D012DE9F84FBC
:10180000050076D02878DFF8F8B2BE4CC00749D082
:10181000DBF800105846C1F38101012908D00068A7
:10182000C0F3810002280AD1201D0068400206D5BD
:101830002068800336D568680028E2D032E0686806
:10184000B0F5803F10D0B0F5A02F206810D020F464
:1018500080302060206820F4802020606868A0B17B
:10186000FFF744FE06460CE0206840F48030F4E7C1
:1018700040F480202060F7E7FFF738FE801B6428E3
:1018800073D820688003F7D50CE0FFF72FFE0646DB
:1018900005E000BFFFF72AFE801B6428F0D820680F
:1018A0008003F7D42878DFF8608280074FF00009C2
:1018B0003ED5DBF80010584611F00C0F09D0006837
:1018C000C0F3810002280BD18D48001F0068400240
:1018D00006D42068800715D5E868012809D111E0F1
:1018E000E868B8B10120C8F80000FFF7FFFD064620
:1018F00005E002E1FFF7FAFD801B0228C0D820684E
:101900008007F7D52068296920F0F80040EAC10077
:1019100020600DE0C8F80090FFF7E8FD064604E0FF
:10192000FFF7E4FD801B02281FD820688007F7D44A
:101930002878000722D5724E744869696C3671B1F7
:1019400001210160FFF7D2FD074604E0FFF7CEFD5D
:10195000C01B022809D830688007F7D50EE0C0F810
:101960000090FFF7C3FD074605E083E0FFF7BEFDEB
:10197000C01B02287ED830688007F7D4287840073B
:1019800068D5DFF87CA100270AF1380ADAF80000F0
:10199000C0000BD4DAF8001041F08051CAF80010F2
:1019A000DAF80000012700F080500090584E3068AF
:1019B000C00510D4306840F480703060FFF796FDA9
:1019C000009005E0FFF792FD0099401A022851D8D7
:1019D0003068C005F6D54A4EA868683601280FD091
:1019E0000528306810D020F001003060306820F009
:1019F00004003060A868B8B1FFF778FD00900FE0F0
:101A0000306840F00100F4E740F004003060F7E790
:101A1000FFF76CFD0099411A41F28830814264D889
:101A200030688007F4D50EE0FFF760FD009007E016
:101A3000FFF75CFD0099411A41F28830814254D889
:101A400030688007F4D42FB1DAF8001021F080510B
:101A5000CAF80010A869C0B3DBF80010C1F3810117
:101A600002294AD00228484607D0C8F86000FFF78C
:101A70003DFD00E039E005463AE04746C8F8600021
:101A8000FFF734FD064604E0FFF730FD801B022817
:101A90002BD820688001F7D4D5E907010843A96A4B
:101AA0001C4A490802EB01416A6A41EA8211084373
:101AB00095F82C1040EA01611148001F01600120D7
:101AC0003866FFF713FD054605E014E0FFF70EFD4D
:101AD000401B022809D820688001F7D50BE000BF21
:101AE000FFF704FD401B022802D90320BDE8F88F50
:101AF00020688001F4D40020F8E70120F6E7000018
:101B0000083802400038024000004742800E474239
:101B1000007000400000FFFF10B5401EB0F1807F54
:101B200001D3012010BD4FF0E02460610F21601748
:101B300000F05EFC0020A06107202061002010BDA5
:101B40007047704730B590F83820012A20D0012224
:101B500080F83820022380F8393003685C6824F06C
:101B600070045C6003685C680D682C435C6003680B
:101B70009C6824F080049C6003689C6849680C435E
:101B80009C6080F83920002180F83810084630BD6C
:101B9000022030BD10B5040003D094F8390010B114
:101BA00007E0012010BD002084F83800204600F036
:101BB0000DF8022084F83900211D206800F0E4FCB3
:101BC000012084F83900002010BD000008B501682C
:101BD0001048B1F1804F0BD00F4A914207D10168F4
:101BE00041F004010160006800F00400009008BDAD
:101BF000016841F0010101600068002200F001006D
:101C0000009011461C20FFF7DDFCBDE808401C20B9
:101C1000FFF7CCBC40380240000800400168CA68A9
:101C200042F00102CA600068016841F001010160F0
:101C30000020704770B5044690F83800012817D08E
:101C4000012584F83850022084F839002068826821
:101C500022F0770222F47F4282600868502837D051
:101C60000DDC202859D005DC88B3102841D151E083
:101C7000022070BD302853D040283AD13FE0602880
:101C80002ED070280BD0B0F5805F03D0B0F5005F88
:101C90002FD110E02068816821F0070115E0CB68A2
:101CA000D1E90121206800F0DAFC2168886840F061
:101CB000770088601DE0CB68D1E90121206800F041
:101CC000CEFC2068816841F48041816011E01EE013
:101CD000CA684968206800F08BFD5021206806E042
:101CE000CA684968206800F094FD6021206800F00F
:101CF000C0FC84F83950002084F8380070BDCA68F0
:101D00004968206800F074FD40212068EFE7002159
:101D10002068ECE710212068E9E720212068E6E749
:101D200030212068E3E7704770B504460068016918
:101D30004FF00005C943890715D4C168C943890715
:101D400011D4E91E01610120207620688069800796
:101D5000204602D0FFF7E7FF04E000F0C3F820467A
:101D600000F045F9257620680169C943490717D471
:101D7000C168C943490713D46FF00401016102200F
:101D800020762068806910F4407F204602D0FFF75B
:101D9000CAFF04E000F0A6F8204600F028F92576F6
:101DA00020680169C943090716D4C168C9430907F6
:101DB00012D46FF008010161042020762068C06908
:101DC0008007204602D0FFF7AEFF04E000F08AF85B
:101DD000204600F00CF9257620680169C943C90640
:101DE00017D4C168C943C90613D46FF0100101614B
:101DF000082020762068C06910F4407F204602D079
:101E0000FFF791FF04E000F06DF8204600F0EFF8D6
:101E1000257620680169C943C90708D1C168C9434B
:101E2000C90704D1891E0161204600F0FDF8206831
:101E30000169C943090609D4C168C943090605D423
:101E40006FF0800101612046FFF77AFE206801698A
:101E5000C943490609D4C168C943490605D46FF08E
:101E600040010161204600F03FF920680169C94343
:101E700089060BD4C168C943890607D46FF02001D5
:101E800001612046BDE87040FFF75BBE70BD0000F9
:101E900010B586B0044614216846FEF7C9F90E490C
:101EA0002068884215D10D480021026842F00802DE
:101EB0000260006800F0080005904FF4C0400090F8
:101EC0000220CDE901010390049069460448FFF720
:101ED0002FFA06B010BD0000000800403038024064
:101EE000000C0240704770B5044690F838000D466B
:101EF00001280DD0012684F83860022084F83900CA
:101F000042B1042A18D0082A2AD00C2A4DD139E02F
:101F1000022070BD206800F0B5FB2068816941F0A7
:101F2000080181612068816921F0040181612068D4
:101F300081692A69114311E0206800F0CFFB206815
:101F4000816941F4006181612068816921F48061C7
:101F50008161206881692A6941EA0221816124E066
:101F6000206800F0EDFB2068C16941F00801C16103
:101F70002068C16921F00401C1612068C1692A6932
:101F8000114311E0206800F00BFC2068C16941F4A6
:101F90000061C1612068C16921F48061C16120686C
:101FA000C1692A6941EA0221C16184F839600020CF
:101FB00084F8380070BD10B5040003D094F83900DF
:101FC00010B107E0012010BD002084F83800204641
:101FD00000F00CF8022084F83900211D206800F080
:101FE000D3FA012084F83900002010BD70477047F3
:101FF00010B504460068012200F026FB084920685D
:10200000884202D00749884203D1416C41F4004123
:1020100041642068016841F001010160002010BDA9
:10202000000001400004014010B52C490068096817
:10203000884251D12A4C2078401C2070E068FEF77D
:10204000B7FFF0EE401AA068FEF7B2FFF0EE400ACC
:10205000B0EE610AFEF744FC00F0DCF9D4ED0B0AA7
:1020600094ED100A00F070FDD4ED0A1A94ED091AEF
:10207000D4ED0E0A94ED0D0AFEF7E8FF04F12400FA
:1020800094ED0E1AD4ED0D0A9FED160AD0EC031A4A
:10209000FFF714F851EC100BFEF7A0FA00EE100A4F
:1020A000D4ED0B0AFEF7C8FF51EC100BFEF796FAC1
:1020B00000EE900AC4ED100A94ED0F0AFEF7AAFF95
:1020C00051EC100BFEF78AFA94ED100ABDE81040AF
:1020D00000EE900AFEF76EBC10BD000090000020DC
:1020E000000000209A99193F704770B5040004D091
:1020F00094F83900002510B106E0012070BD84F885
:102100003850204600F022F8242084F83900206856
:10211000C16821F40051C160204600F08DFB2068A9
:10212000016921F4904101612068416921F02A018F
:1021300041612068C16841F40051C160E56320201D
:1021400084F8390084F83A00002070BD10B586B0DC
:10215000044614216846FEF76BF81349206888424C
:1021600020D11248016841F400310160006800F498
:10217000003005900D481038016841F00101016000
:102180000068694600F0010005900C2000900220D4
:10219000019001200290032003900720049004483E
:1021A000FFF7C6F806B010BD0044004040380240BA
:1021B000000002402DE9F843044690F839001F461C
:1021C00016460D46202850D1A5B19EB194F838008E
:1021D00001284AD0012084F838004FF00008C4F8E4
:1021E0003C80212084F83900FFF780F9A6848146DD
:1021F000E68426E00120BDE8F883E08C401EE08400
:10220000A0684B46B0F5805F4FF000024FF08001B0
:102210002046009703D000F065FCE8B90DE000F01F
:1022200061FCC8B928882168C0F3080048602069AB
:1022300008B16D1C05E0AD1C03E0216815F8010B29
:102240004860E08C0028D8D14B460022402120462F
:10225000009700F047FC08B10320CCE7202084F869
:10226000390084F838800020C5E70220C3E7FEE784
:1022700070B586B014216846FDF7DAFF22480024C5
:10228000016841F001010160016801F0010105915F
:10229000016841F008010160016801F00801059141
:1022A000016841F0020101600068184E00F0020070
:1022B0004FF410450590002229463046FFF710F9EB
:1022C00001200095CDE90104694630460394FFF7EB
:1022D0002FF8182000900E48CDE9010469460D48FA
:1022E000FFF726F8002211460920FFF76BF90920B5
:1022F000FFF75CF9002211460A20FFF763F90A2074
:10230000FFF754F906B070BD30380240000C0240AF
:10231000000011100004024010B586B000241148DE
:10232000009401940294039404944FF08041059426
:10233000016042F2CF01C0E9011440F2E731C0E987
:102340000314FFF727FC4FF48050009069460548BE
:10235000FFF770FC049404A902480594FFF7F2FB10
:1023600006B010BD9000002010B58EB00024079478
:10237000089409940A940B941C2168460C94FDF768
:1023800057FF1948174901601421C0E9011440F2B0
:102390008F11C0E90314FFF7FDFB4FF48050079045
:1023A00007A91148FFF746FC0F48FFF704FE0B94FE
:1023B0000BA90D480C94FFF7C5FB6020CDE9000484
:1023C00002940422694608480494FFF78CFD082211
:1023D00069460548FFF787FD0348FFF759FD0EB032
:1023E00010BD000000080040CC000020FEE7704750
:1023F0000907090E002806DA00F00F0000F1E020BE
:1024000080F8141D704700F1E02080F80014704738
:1024100070477047144A154902F16C0092ED090AA1
:1024200082ED1B0A03780B7043784B7083788B70B6
:10243000C078C87092ED0A0A02F1700082ED1C0AA1
:1024400002780A7142784A7182788A71C078C871BC
:102450000D2008720A20487202464FF4FA53A1F187
:102460004000FFF7A7BE0000000000204801002048
:1024700010B5642A01DD642202E0002A00DA00229D
:10248000074CC3F10103A4885443642294FBF2F285
:102490005343026821F003003430135010BD000094
:1024A00000000020FFF728B830B593B0302168460F
:1024B000FDF7BEFE14210CA8FDF7BAFE1848002552
:1024C000016841F080510160006800F08050119077
:1024D0001448016841F4804101600068022400F45E
:1024E00080401190012003901020049000940694E5
:1024F0000820CDE907505420CDE9090404200B90B1
:102500006846FFF77BF90CA90F2081E83100E00253
:10251000CDE90F0502210CA8FFF786F813B030BDF6
:1025200040380240007000401048016841F47001DA
:1025300001600F48016841F0010101600C4A00216F
:102540000832116002680B4B1A400260031D0A4AF0
:102550001A60026822F48022026005480C30016093
:1025600002495806803908607047000088ED00E095
:1025700000380240FFFFF6FE103000240148FFF74C
:10258000D3BB000090000020F0B50268234B244D1F
:10259000244E254F254C4FF0804C984209D0604581
:1025A00007D0A84205D0B04203D0B84201D0A04223
:1025B00004D122F0700E4A6842EA0E0298421BD003
:1025C000604519D0A84217D0B04215D0B84213D0F8
:1025D000A04211D0164DA8420ED0164DA8420BD0E5
:1025E000154DA84208D0154DA84205D0144DA8425B
:1025F00002D0144DA84203D122F44075CA682A4380
:1026000002608A68C2620A688262984201D0A0426F
:1026100001D10969016301214161F0BD0000014060
:102620000004004000080040000C0040000401408D
:1026300000400140004401400048014000180040B3
:10264000001C00400020004010B50123046A8B40AC
:102650009C430462036A8A401343036210BD10B5B1
:10266000846842EA032224F47F440A4322438260BE
:1026700010BD826822F070020A4342F007018160B7
:102680007047000030B5026A22F001020262026A5D
:10269000436884690D6824F07304254322F0020422
:1026A0008A6822430B4CA04202D00B4CA0420BD1B3
:1026B00022F00804CA6823F4407322434C6922F0D4
:1026C00004021C438B69234343608561496841636D
:1026D000026230BD000001400004014030B5026AD2
:1026E00022F010020262026A436884690D6824F4D1
:1026F000E64444EA05248D6822F0200242EA0512ED
:102700000D4DA84202D00D4DA8420ED1CD6822F049
:10271000800242EA05124D6923F4406343EA8503CF
:102720008D6922F0400243EA850343608461496871
:102730008163026230BD00000000014000040140DE
:1027400030B5026A22F480720262036A4268C46988
:1027500023F4007324F073050C682C438D6843EA5E
:1027600005230D4DA84202D00C4DA8420ED1CD68D4
:1027700023F4006343EA05234D6922F4405242EA00
:1027800005128D6923F4806342EA05124260C46138
:102790004968C163036230BD00000140000401408C
:1027A00030B5026A22F480520262046A4268C36948
:1027B0000D6823F4E64343EA05238D6824F40054AE
:1027C00044EA0534084DA84202D0084DA84204D17D
:1027D0004D6922F4804242EA85124260C361496831
:1027E0000164046230BD00000000014000040140AB
:1027F00010B5036A046A24F001040462846924F0B9
:10280000F00444EA021423F00A020A4384610262DB
:1028100010BD10B5036A23F0100303628369046AD4
:1028200023F4704343EA023224F0A00343EA011187
:102830008261016210BD00002DE9F041044600688C
:10284000016921F44052E168114301612168C868BF
:1028500049F20C6290432369A268E5691A436369EF
:102860002B431A430243CA602168486920F440722E
:10287000A06910434861E1696425B1F5004F9748AC
:10288000974A21684FF032083FD0914201D08142EF
:102890007CD1FEF771FF00EBC00101EB0010616815
:1028A0008900B0FBF1F6FEF767FF00EBC00101EB1A
:1028B000001061688900B0FBF1F0B0FBF5F06FF03B
:1028C0001801484306EB800108EB0110B0FBF5F05E
:1028D00000F0F006FEF750FF00EBC00101EB001026
:1028E00061688900B0FBF1F0B0FBF5F006EB001673
:1028F000FEF742FF00EBC00101EB001061688900A8
:10290000B0FBF1F7FEF738FFD2E0914201D08142EF
:102910003DD1FEF731FF00EBC00101EB0010616813
:102920004900B0FBF1F0B0FBF5F00601FEF724FF23
:1029300000EBC00101EB001061684900B0FBF1F74A
:10294000FEF71AFF00EBC00101EB001061684900BF
:10295000B0FBF1F0B0FBF5F06FF01801484307EB66
:10296000800108EBC100B0FBF5F000F0F80006EBC9
:102970004006FEF701FF00EBC00101EB00106168AB
:102980004900B0FBF1F7FEF7F7FE3CE055E0FEF73B
:10299000E3FE00EBC00101EB001061684900B0FBF1
:1029A000F1F0B0FBF5F00601FEF7D6FE00EBC0013A
:1029B00001EB001061684900B0FBF1F7FEF7CCFEB7
:1029C00000EBC00101EB001061684900B0FBF1F0C1
:1029D000B0FBF5F06FF01801484307EB800108EBFE
:1029E000C100B0FBF5F000F0F80006EB4006FEF782
:1029F000B3FE00EBC00101EB001061684900B0FBC1
:102A0000F1F7FEF7A9FE00EBC00101EB00106168D1
:102A10004900B0FBF1F0B0FBF5F06FF0180148434E
:102A200007EB800108EBC100B0FBF5F000F00700F8
:102A3000216830448860BDE8F081FEF78DFE00EB30
:102A4000C00101EB001061688900B0FBF1F6FEF7F0
:102A500083FE00EBC00101EB001061688900B0FB50
:102A6000F1F0B0FBF5F06FF01801484306EB800180
:102A700008EB0110B0FBF5F000F0F006FEF76CFE7D
:102A800000EBC00101EB001061688900B0FBF1F0C0
:102A9000B0FBF5F006EB0016FEF75EFE00EBC001A2
:102AA00001EB001061688900B0FBF1F7FEF754FEFE
:102AB00000EBC00101EB001061688900B0FBF1F090
:102AC000B0FBF5F06FF01801484307EB800108EB0D
:102AD0000110B0FBF5F000F00F00A9E70014014071
:102AE000001001402DE9F041984617460E46044675
:102AF000069D1DE0681C1BD02DB1FEF7F7FCA0EB76
:102B00000800A84214D92068C16821F4D071C160BE
:102B10002068416921F001014161202084F83900D9
:102B200084F83A00002084F838000320BDE8F081E2
:102B30002068006836EA000004D00020B842D9D0EE
:102B40000020F3E70120F9E7024880ED0F0AC0ED0D
:102B50000C0A704700000020FEE703B40198410012
:102B6000009850EAC12018BF04204A0D18BF40F059
:102B7000010040F2FF72B2EB515F08BF40F002006B
:102B8000012808BF052002B07047000000000000C7
:102B900070B59B482DED020B2DED068B079D25F0A2
:102BA0000044A04218DC9748844202DC0AD106980F
:102BB00040B19DED060BBDEC068B02B0BDE8704048
:102BC00000F042BE002DCCBF9FED8F0B9FED900B10
:102BD000BDEC068B02B070BD8F48A04215DD8F485A
:102BE000A042D8BF4FF0FF3458DD9DED060B51ECED
:102BF000100BFFF7B2FF042808BF00F041FE9DED67
:102C0000060BBDEC068B02B070BD9DED060B51ECC2
:102C1000100B00F05BFECDE9060181489FED828B31
:102C2000A0423CDD8248A0421FDD00249FED82AB24
:102C30009DED060B53EC1A2B51EC100BFDF703FB2B
:102C40009DED060B41EC190B53EC1A2B51EC100BBC
:102C5000FDF7A0FB53EC182BFDF796FB53EC192B5B
:102C6000FDF70AFCCDE9060149E09DED060B0124C4
:102C700053EC182B51EC100BFDF7E5FA9DED060B0C
:102C800041EC190B53EC182B51EC100BFDF77CFBAE
:102C900053EC192BFDF7F0FBCDE906012FE0684856
:102CA000A0421FDD02249FED689B9DED060B53ECB7
:102CB000192B51EC100BFDF76DFB53EC182BFDF7A6
:102CC000C2FA9DED060B41EC180B53EC192B51EC9D
:102CD000100BFDF759FB53EC182BFDF7CDFBCDE99D
:102CE00006010CE09DED060B032453EC102B9FED29
:102CF000580B51EC100BFDF7BFFBCDE906019DED24
:102D0000060B53EC102B51EC100BFDF743FB41EC81
:102D1000180B53EC182BFDF73DFB41EC190B4E48FB
:102D20000621B0EE490AF0EE690A784400F078FC1A
:102D300053EC182B51EC100BFDF72CFB41EC180B4E
:102D40004648B0EE490AF0EE690A0521784400F0E1
:102D500067FC53EC192B51EC100BFDF71BFB41ECFE
:102D6000100B51EC180B53EC102B002C0EDAFDF766
:102D70006AFA9DED061B53EC112BFDF70BFB9DED45
:102D8000061B53EC112BFDF702FB35E0FDF75BFA58
:102D90009DED061B53EC112BFDF7FCFA41EC100BDB
:102DA0002F48784400EBC40090ED001B51EC100B51
:102DB00053EC112BFDF7E8FA9DED061B53EC112B9C
:102DC000FDF7E2FA41EC100B2648784400EBC40012
:102DD00090ED001B51EC100B53EC112BFDF7D7FAC3
:102DE00041EC100B002DA2BFBDEC068B02B070BDF4
:102DF00051EC100B81F0004141EC100B01E7000099
:102E0000000010440000F07F182D4454FB21F93FCE
:102E1000182D4454FB21F9BF0000DC3F0000203E88
:102E20000000F33F00000000000000000000F03F41
:102E30000000E63F0000000000000000000000402D
:102E40000080034000000000000000000000F83F88
:102E5000000000000000F0BFFA0D0000B00D0000FF
:102E60003A0D0000F20C000010B52F499FED2C1B0D
:102E70002DED020B84B0059820F000408842D8BFA9
:102E80009DED040B2DDD2949884209D1049840B9F4
:102E90004FF0010000F014FD00F0E2FC06B010BDA0
:102EA00005DB9DED040B00F0CFFC06B010BD6846BD
:102EB0009DED040B00F0E0F810F0030004BF9DED61
:102EC000021B9DED000B0CD001280ED09DED021BC6
:102ED0009DED000B022817D0012000F01DFC06B06C
:102EE00010BD00F0E5FA06B010BD9DED021B9DED92
:102EF000000B012000F010FC51EC100B81F00041A0
:102F000006B041EC100B10BD00F0D2FA51EC100BE2
:102F100081F0004106B041EC100B10BD0000000034
:102F20000000000000000000FB21E93F0000F07FEE
:102F300010B52F499FED2C1B2DED020B84B0059889
:102F400020F000408842DCBF00209DED040B32DD04
:102F50002849884209D1049840B94FF0010000F097
:102F6000AFFC00F07DFC06B010BD05DB9DED040B51
:102F700000F06AFC06B010BD68469DED040B00F041
:102F80007BF810F0030011D0012818D09DED021B32
:102F90009DED000B02281AD000F08AFA51EC100BBC
:102FA00081F0004106B041EC100B10BD9DED021BFD
:102FB0009DED000B012000F0AFFB06B010BD9DEDB4
:102FC000021B9DED000B00F073FA06B010BD01204E
:102FD00000F0A2FB51EC100B81F0004106B041EC77
:102FE000100B10BD000000000000000000000000F9
:102FF000FB21E93F0000F07F00B52DED048BB0EE22
:10300000409AF0EE609A83B051EC190BFDF7C7FBC4
:1030100041EC180B18EE100A18EE901A8DED008B8B
:10302000002818BF0120084320F00040C0F17F6055
:1030300000F1E040C00F14D019EE101A19EE900AFA
:103040008DED009B002918BF0121084320F00040AE
:10305000C0F17F6000F1E040C00F04BF012000F02C
:103060002FFCB0EE480A03B0F0EE680ABDEC048B0A
:1030700000BD0000000000002DE9F14F04462DEDD9
:10308000020B2DED088B8AB09FEDE70B80ED020B54
:10309000139EE74826F0004585420ADC9DED120BA1
:1030A000002084ED000B0AB0BDEC088B03B0BDE836
:1030B000F08FE0489FEDE0AB9FEDE1BBA84247DD1C
:1030C000E14F9FEDE39B9FEDE48B9DED120B53ECE5
:1030D0001A2B51EC100B002E1CDDFDF755F941ECBD
:1030E000100BBD4208D053EC1B2B51EC100BFDF71D
:1030F0004BF9C4E900010BE053EC192B51EC100B18
:10310000FDF742F953EC182BFDF73EF9C4E9000135
:103110000120C8E7FDF797F841EC100BBD4208D03D
:1031200053EC1B2B51EC100BFDF78DF8C4E900019B
:103130000BE053EC192B51EC100BFDF784F853EC1A
:10314000182BFDF780F8C4E900014FF0FF30AAE723
:10315000C348A84279DB9DED120B51EC100B00F037
:10316000B5FB41EC180B9FEDC00B53EC102BFDF79A
:1031700011F99FEDBF1B53EC112BFDF764F8FDF720
:103180008FFB0746FDF76EFB41EC190B53EC1A2B36
:10319000FDF700F953EC182BFDF7F9F841EC180B8B
:1031A00053EC1B2B51EC190BFDF7F4F8DFF8C8A218
:1031B00041EC100B4FEA15580125FA4453EC102B43
:1031C00051EC180BFDF7E0F8032DC4E900013DD0E8
:1031D000C1F30A5005EB4511A8EB000011398142FB
:1031E00034DA0AEB051BB0EE48AA9BED000BF0EEBB
:1031F00068AA53EC102B51EC190BFDF7CBF841ECFE
:103200001B0B51EC1A0B53EC1B2BFDF7BDF841ECDB
:10321000180B51EC1A0B53EC182BFDF7B5F853ECC7
:103220001B2BFDF7B1F89BED020B41EC1A0B53EC95
:10323000102B51EC190BFDF7ADF853EC1A2BFDF7E1
:10324000A3F841EC100B6D1CB8E70EE0002EA8BFF0
:103250003846BFF628AF94ED000B51EC100B81F00F
:103260000041C4E9000178421DE7C6F3130040F4B1
:10327000801EC6F30A50A0F2F530471100F01F057A
:10328000C5F12000DDF848B00890002006900790B6
:103290000520EC467949002D07EB0002794408BF70
:1032A00051F8221009D051F8223001EB8201AB40D5
:1032B0004A68089922FA01F11943A1FB0E26A1FBE5
:1032C0000B131A449A4234BF0123002303EB060870
:1032D0000CEB8003D3E901A60E448E4234BF0121DA
:1032E000002192448A4411B1924502D903E09245EB
:1032F00001D2012100E00021C3E901A641444CF8BC
:103300002010011EA0F10100C4DC029800F1005061
:10331000850F0298DDE903678000DDF81480FDF772
:10332000A1FA41EC1A0B3046FDF7ADFA9FED541BA4
:1033300053EC112BFDF72EF841EC1B0B3846FDF733
:10334000A2FA9FED511B53EC112BFDF723F841EC32
:10335000180B4046FDF797FA9FED4D1B53EC112BD0
:10336000FDF718F841EC190B51EC180B53EC192B25
:10337000FCF769FF53EC1B2BFCF765FF53EC1A2B92
:10338000FCF761FFCDE90801002008909DED080BD6
:1033900053EC1A2B51EC100BFCF7F6FF53EC1B2BE4
:1033A000FCF7F2FF53EC182BFCF7EEFF53EC192B54
:1033B000FCF7EDFF9FED381B53EC112BFCF7EAFFF8
:1033C0009FED370B41EC180B53EC102B9DED080BC8
:1033D00051EC100BFCF7DEFF53EC182BFCF733FF1E
:1033E0009FED310B41EC180B53EC102B9DED080BAE
:1033F00051EC100BFCF7CEFF53EC182BFCF723FF1E
:1034000041EC100B139810F0004F06D06D4251ECB8
:10341000100B81F0004141EC100B284684ED000BAD
:1034200041E6000000000000000000000000000075
:10343000FB21E93F7CD9024000004054FB21F93FC9
:103440003163621A61B4D03DFB21F93F00000000F6
:103450000000601A61B4D03D7370032E8A19A33B3B
:10346000FB2139410000000083C8C96D305FE43F93
:10347000000000000000E03FCA0900001809000039
:10348000000000000000103E000000000000103CA2
:10349000000000000000103A182D4454FB21F93DB3
:1034A0003326A611460B113C00000054FB21F93DC8
:1034B00010B52DED040B2DED088B82B0B0EE419AC6
:1034C000F0EE619A0B9820F000449FED4BABB4F105
:1034D000795F11DA9DED0A0B51EC100BFDF7E0F965
:1034E000002801BFB0EE4A0AF0EE6A0A02B0BDEC55
:1034F000088B04BF04B010BD9DED0A0B53EC102BDC
:1035000051EC100BFCF746FF41EC180B3C48062130
:10351000B0EE480AF0EE680A784400F081F853EC07
:10352000182B51EC100BFCF735FF9DED0A0B41EC0D
:103530001B0B53EC192B51EC100BFCF72BFF41EC40
:10354000190B53EC1B2B51EC180BFCF723FF53EC1E
:10355000192BFCF719FF9FED2C0B41EC190B53ECC9
:10356000102B51EC180BFCF715FF41EC100B284801
:10357000844210DA53EC192B51EC100BFCF704FFCA
:1035800053EC1A2BFCF703FF41EC100B02B0BDEC1F
:10359000088B04B010BD1F48A042BCBF9FED1E1B8E
:1035A0008DED001B06DBA4F50010019000200090BB
:1035B0009DED001B51EC100B53EC112BFCF7E4FEBE
:1035C0009DED000B41EC180B53EC102B51EC1A0B3A
:1035D000FCF7DAFE41EC1A0B53EC192B51EC180BEB
:1035E000FCF7D2FE53EC1A2BFCF7D1FE41EC100B8A
:1035F000CCE7000000000000000000000000F03FE9
:103600003C06000000000000000000000000E03F59
:103610003333D33F0000E93F000000000000D23FF9
:1036200070B504462DED028B4D1E00EBC500B0EECB
:10363000408AF0EE608A90ED000B35F0060017D05E
:1036400053EC182B51EC100BFCF7A4FE41EC100BC3
:103650006D1E04EBC50090ED001B51EC100B53ECFC
:10366000112BFCF7F0FD41EC100B35F00600E7D113
:10367000022D36D0042D1CD0062D1CBFBDEC028BB4
:1036800070BD53EC182B51EC100BFCF783FE94ED3E
:103690000A1B53EC112BFCF7D6FD53EC182BFCF74F
:1036A00079FE94ED081B53EC112BFCF7CCFD41EC9B
:1036B000100B53EC182B51EC100BFCF76BFE94ED38
:1036C000061B53EC112BFCF7BEFD53EC182BFCF73B
:1036D00061FE94ED040B53EC102BFCF7B4FD41ECB0
:1036E000100B53EC182B51EC100BFCF753FE94ED20
:1036F000021B53EC112BFCF7A6FD53EC182BFCF727
:1037000049FE94ED001B53EC112BFCF79CFDBDEC26
:10371000028B41EC100B70BD31B504462DED040B4E
:103720002DED0A8BB0EE41BAF0EE61BA0B989DED2B
:103730000A0B20F00040B0F1795F0DDA51EC100B6C
:10374000FFF70BFA042808BF00F09AF89DED0A0B6A
:10375000BDEC0A8B05B030BD53EC102B51EC100BB7
:10376000FCF718FE41EC180B9DED0A0B53EC182BDF
:1037700051EC100BFCF70EFE41EC190B2C48B0EE8F
:10378000480AF0EE680A05217844FFF749FF9FEDEB
:103790002ACBB0EE40AAF0EE60AA9CB353EC1C2BEF
:1037A00051EC190BFCF7F6FD41EC1C0B53EC1A2BFA
:1037B00051EC190BFCF7EEFD9FED210B41EC190BC1
:1037C00053EC102B51EC1B0BFCF7E4FD53EC192BC5
:1037D000FCF7DAFD53EC182BFCF7DCFD53EC1B2B4C
:1037E000FCF7D2FD53EC1C2BFCF7CEFD9DED0A1B24
:1037F00053EC112BFCF7CBFDBDEC0A8B05B041EC73
:10380000100B30BDFFE753EC1A2B51EC180BFCF7F3
:10381000C1FD53EC1C2BFCF716FD53EC192BFCF7E8
:10382000B9FD9DED0A1B53EC112BFCF70CFDE3E7F2
:10383000C404000000000000495555555555C5BF4A
:10384000000000000000E03F10B553EC102B51ECDD
:10385000100BFCF7F8FC41EC100B10BD0000000051
:103860009FED050B10B553EC102B51EC100BFCF732
:1038700003FE41EC100B10BD000000000000000032
:103880009FED050B10B553EC102B51EC100BFCF712
:1038900081FD41EC100B10BD000000000000001085
:1038A00002E008C8121F08C1002AFAD17047704709
:1038B000002001E001C1121F002AFBD17047000067
:1038C00001490860704700008C00002082B0CDE9FB
:1038D000000121F0004001909DED000B02B051EC81
:1038E000100B7047FDF710FEFEF7DEFDFEF7C0FC83
:1038F000FEF73AFDFEF710FD1F481E490C2201603D
:103900004FF4E131416000218160C160C0E90412DF
:103910008161C161FEF7E9FB174800213C38FEF7E1
:1039200067FB154804213C38FEF762FB124808216A
:103930003C38FEF75DFB10480C213C38FEF758FB85
:103940000E4890ED150A80ED0D0A90ED160A80EDF7
:103950000E0A09487838FEF761F9094C0122110373
:103960002046FDF7BDFD0122D1032046FDF7B8FD3D
:10397000FEE7000000440040080100200000002095
:10398000000C024010B52DED048BB0EE418AF0EE34
:10399000618AB0EE409AF0EE609A53EC182B51EC2D
:1039A000190BFCF703FE06D2B0EE490AF0EE690AE5
:1039B000BDEC048B10BDB0EE480AF0EE680AF7E7E4
:1039C00010B52DED0C8BB0EE41AAF0EE61AAB0EE71
:1039D000408AF0EE608AB0EE449AF0EE649AB0EE5F
:1039E00043BAF0EE63BAB0EE42CAF0EE62CA9FED9F
:1039F0002ADB53EC1A2B51EC180BFCF7BFFD06D257
:103A0000B0EE4D0AF0EE6D0ABDEC0C8B10BD53EC20
:103A10001C2B51EC180BFCF7B1FD12D253EC1A2BF6
:103A200051EC1C0BFCF7B0FC41EC190B53EC1A2BBE
:103A300051EC180BFCF7A8FC41EC100B53EC192BC4
:103A400022E053EC1B2B51EC180BFCF797FD02D234
:103A50009FED130BD8E753EC192B51EC180BFCF727
:103A60008DFDCDD253EC1B2B51EC190BFCF78CFCCC
:103A700041EC1A0B53EC192B51EC180BFCF787FC9B
:103A800053EC1A2B41EC100B51EC100BFCF7F4FC2F
:103A900041EC100BB8E7000000000000000000003F
:103AA000000000000000F03F0000000000000000E7
:103AB00001020304060708090000000001020304D4
:103AC0004FBB610567ACDD3F182D4454FB21E93F36
:103AD0009BF681D20B73EF3F182D4454FB21F93F25
:103AE000E2652F227F2B7A3C075C143326A6813CAB
:103AF000BDCBF07A8807703C075C143326A6913C56
:103B0000C4EB98999999C9BF711623FEC671BCBFC1
:103B10006D9A74AFF2B0B3BF9AFDDE522DDEADBF29
:103B20002F6C6A2C44B4A2BF0D5555555555D53F41
:103B3000FF8300922449C23F6E204CC5CD45B73F5C
:103B4000513DD0A0660DB13FEB0D76244B7BA93FD4
:103B500011DA22E33AAD903F4C5555555555A53FE6
:103B60007751C1166CC156BF9015CB19A001FA3E12
:103B7000AD529C804F7E92BEC4B1B4BD9EEE213E3C
:103B8000D43888BEE9FAA8BD00004054FB21F93FB3
:103B90003163621A61B4D03D0000601A61B4D03D57
:103BA0007370032E8A19A33B0000002E8A19A33BD1
:103BB000C14920259A837B390000000000000000E5
:103BC0006E83F9A22915444ED15727FCC0DD34F588
:103BD000999562DB4190433CAB6351FE61C5BBDE0E
:103BE0003A6E24B7E0D24D42EA2E49061C92D10922
:103BF0001CEB1DFE3EA729B1F53582E88444BB2E9F
:103C000026709CE9417E5FB439D69139F4395383EB
:103C10008B5F849C3B28F9BDFF97F81F0F9805DE4A
:103C20008B112FEF1F6D0A5ACF7E366DB709CB2748
:103C3000663F464F2DEA5F9EC7BA27757BF1E5EBDD
:103C4000F739073DEA92528AB15FFB6B085D8D1F21
:103C5000A6F810111111813FD561C119A0012ABF29
:103C60007DFEB157E31DC73EEB9C2B8AE6E55ABEAD
:103C70007CD5CF5A3AD9E53D983C00080000002099
:103C800090000000A0380008283D000890000020A7
:103C9000C8040000B0380008000000008F010000D8
:103CA0000000000000000000000000000000000014
:103CB000000040400000003F0000484200000000BB
:103CC00000000000000000000000000000000000F4
:103CD000000000000000000000000000CDCCCC3D42
:103CE0009A99193F00000000CDCCCC3D0000204047
:103CF0000000803E33339340000080406666D6402B
:103D0000333383400000000000000000000000008A
:103D10000000000001000000100000000000000092
:083D20000024F4000000000083
:040000050800018965
:00000001FF
