:020000040800F2
:10000000D80400209D0100080F2000089F1E000852
:100010000D20000811090008092400080000000054
:100020000000000000000000000000003320000875
:10003000F10A0008000000003120000865200008D7
:10004000B7010008B7010008B7010008B7010008B0
:10005000B7010008B7010008B7010008B7010008A0
:10006000B70100085D0E0008710E0008B701000816
:10007000B7010008B7010008B7010008B701000880
:10008000B7010008B7010008B7010008B701000870
:10009000B7010008B7010008B7010008B701000860
:1000A000B7010008B7010008B7010008B701000850
:1000B0003D210008B7010008B7010008B70100089A
:1000C000B7010008B7010008B7010008B701000830
:1000D000B7010008B7010008B7010008B701000820
:1000E000B7010008B7010008B7010008B701000810
:1000F000B7010008B7010008B7010008B701000800
:10010000B7010008B7010008B7010008B7010008EF
:10011000B7010008B7010008B7010008B7010008DF
:10012000B7010008B7010008B7010008B7010008CF
:10013000B7010008B7010008B7010008B7010008BF
:10014000B7010008B7010008B7010008B7010008AF
:10015000B7010008B7010008B7010008B70100089F
:10016000B7010008B7010008B7010008B70100088F
:10017000B7010008B7010008B7010008000000003F
:10018000B7010008B7010008DFF80CD000F07EFBD3
:100190000048004795310008D804002006488047F1
:1001A00006480047FEE7FEE7FEE7FEE7FEE7FEE75C
:1001B000FEE7FEE7FEE7FEE7E92000088901000808
:1001C0002DE9F05F0546002092469B46884606468C
:1001D000814640241BE0284641464746224600F01F
:1001E0004EFA53465A46C01A914110D3114618464A
:1001F000224600F035FA2D1A67EB01084F462246D9
:100200000120002100F02CFA17EB00094E41201EBE
:10021000A4F10104DFDC484631462A464346BDE8E6
:10022000F09FD2B201E000F8012B491EFBD27047CB
:100230000022F6E710B513460A4604461946FFF7B2
:10024000F0FF204610BD2DE9FE4F804681EA0300F5
:10025000C00F0C46009021F0004123F00045B8EBA0
:100260000200A94105D24046214690461C460B4655
:10027000024623F00040104347D0270DC7F30A0081
:10028000C3F30A510290401A019040286BDAC3F37D
:10029000130040F4801B0098924620B10023D2EB5B
:1002A000030A63EB0B0B01985946C0F1400250461C
:1002B00000F0D6F906460D4650465946019A00F020
:1002C000EEF910EB08006141002487EA115284EA3C
:1002D000E7731A4340D0009A62B3019A012A4FEAA9
:1002E000075215DC001B61EB02014FF0004202EAED
:1002F0000752CDE90042001C41F5801132462B46E1
:1003000000F025FA03B0BDE8F08F40462146F9E73A
:10031000001B61EB0201001C41F5801300185B41DA
:100320002018A2F5001747EB030140EAD570B61973
:100330006D4111E06D084FEA360645EAC0754FEA97
:100340000752001B61EB0201001C41F580114908B6
:100350004FEA30000019514132462B4603B0BDE848
:10036000F04F00F0E5B90098012240000023D0EBE7
:10037000020263EBE073009821464FEAE074B8EBA9
:10038000000061EB0401E9E783F000435BE781F0E3
:10039000004158E72DE9FE4F81EA030404F00044D0
:1003A00021F0004100944FF0000B23F0004350EA8D
:1003B00001045ED052EA03045BD0C3F30A54C1F3D4
:1003C0000A552C44A4F2F3340194A0FB0254C1F367
:1003D000130141F48011C3F3130343F4801301FBB1
:1003E000024400FB034E840A970A44EA815447EA18
:1003F0008357A4FB076802958D0A05FB07854FEA22
:10040000932C04FB0C542705029D4FEA065847EA3B
:100410001637B5EB08056EEB070C870E920E47EA10
:10042000811742EA8312A7FB0201B6EB0B0164EBD2
:1004300000042B0D43EA0C335E1844EB1C50DA46E3
:100440005146E7FB0201C5F313044FEA0B3343EABD
:1004500014534FEA0432019C43EA0603A4F10C044E
:100460000294009CCDE900B400F071F903B0BDE83E
:10047000F08F00200146F9E72DE9F04D81EA0304F1
:1004800004F0004B21F0004514464FF0000A23F021
:10049000004150EA050220D054EA01021DD0C5F304
:1004A0000A570246C5F31303C1F31300C1F30A56FA
:1004B00040F4801543F48013A7EB0608101BD646C2
:1004C00008F2FD3873EB050002D308F1010801E0E2
:1004D00092185B41B8F1000F03DA00200146BDE835
:1004E000F08D00204FF48011064684460EE0171B65
:1004F00073EB050705D3121B63EB050306434CEAB8
:10050000010C49084FEA300092185B4150EA01079C
:10051000EDD152EA030012D082EA040083EA050119
:10052000084305D0101BAB4106D20122002306E090
:1005300000224FF0004302E06FF0010253101AEB6B
:1005400006004CEB085110EB0A0041EB0B01BDE833
:10055000F04D00F0EDB80EB540F2334102910021AC
:10056000CDE900110A460B4600F0F1F803B000BDDA
:10057000C1F30A5210B5C1F3130140F2FF3341F445
:1005800080119A4201DA002010BD40F233439A42B2
:10059000A2F2334203DC524200F071F810BD9040E9
:1005A00010BD00F0004230F000400AD0C10D01F54E
:1005B0006071C0F3160042EA0151C20840071143BE
:1005C000704700200146704730B5041E71F10004E9
:1005D00004DB4FF00044404264EB0101141E73F150
:1005E000000405DB1C464FF00043524263EB04035A
:1005F0008B4208BF824230BD30B5041E71F1000449
:1006000004DB4FF00044404264EB0101141E73F11F
:10061000000405DB1C464FF00043524263EB040329
:10062000994208BF904230BD01F0004330B421F040
:10063000004150EA010206D00A0DA2F56072C1F332
:100640001301002A02DC30BC00207047440F44EA4A
:10065000C104C100E01830BC00EBC25000F031B85A
:10066000202A04DB203A00FA02F100207047914072
:10067000C2F1200320FA03F3194390407047202A67
:1006800004DB203A21FA02F00021704721FA02F33C
:10069000D040C2F120029140084319467047202AF9
:1006A00006DBCB17203A41FA02F043EAE07306E09A
:1006B00041FA02F3D040C2F12002914008431946AA
:1006C00070470029A8BF7047401C490008BF20F0B0
:1006D0000100704710B4B0FA80FC00FA0CF050EA48
:1006E000010404BF10BC704749B1CCF1200421FAC9
:1006F00004F411FA0CF118BF012121430843A3EBC4
:100700000C01CB1D4FEA00614FEA102042BF0020D0
:1007100010BC704700EBC35010440029A4BF10BCAC
:100720007047401C490008BF20F0010010BC704712
:1007300010B5141E73F1000408DA401C41F10001E9
:1007400092185B411A4301D120F0010010BD2DE940
:10075000F04D92469B4611B1B1FA81F202E0B0FA37
:1007600080F220329046FFF77BFF04460F4640EAB6
:100770000A0041EA0B0153465A46084313D011467A
:1007800053EA010019D0C8F140025046FFF777FF45
:1007900005460E46504659464246FFF761FF08435C
:1007A00005D0012004E020463946BDE8F08D002048
:1007B000054346EAE0762C4337430A986305E40A8A
:1007C000A0EB08000022FD0A44EA47540A3002D593
:1007D00000200146E9E7010510196941DDE90845F6
:1007E00000196941BDE8F04DA2E72DE9F04D002365
:1007F0001A461B1A8A4103DB00200146BDE8F08D32
:10080000C1F30A52C1F3130141F480154FF0000BFC
:10081000D10702D100186D41521E0027044640F254
:10082000FF11384601EB620A3E4680460246002030
:100830004FF48011FFF723FFC2197141BB1846EB3B
:100840000100B4EB030C75EB000C04D3E41A65EB68
:10085000000517460E46241908F101006D41804637
:100860003428E3DDF91946EB0600091BA84103D241
:100870004FF0FF32134601E0002213461BEB070046
:1008800046EB0A51BDE8F04DFFF752BF064C074D4D
:1008900006E0E06840F0010394E807009847103450
:1008A000AC42F6D3FFF774FCC8340008E834000803
:1008B0000EB5C10F80EAE0700844CA07002140F27B
:1008C00033438DE80E000A460B46FFF740FF03B0A6
:1008D00000BD70B5C1F30A5201F000450024C1F318
:1008E000130140F2FF3341F480119A4201DA0020F3
:1008F00070BD40F233439A42A2F2334203DC5242CB
:10090000FFF7BDFE00E090402C43F1D0404270BDA7
:10091000FEE7000010B5314C2DED088BF0EE608A3B
:10092000B0EE409AE06AFFF73CFE41EC100B01F09C
:10093000F3FE39EE288AB0EE401AF0EE601AB0EEFF
:1009400041AAF0EE61AA18EE100AFFF72AFE53EC56
:100950001A2BFFF71FFD9FED22BB53EC1B2BFFF75C
:1009600019FDFFF761FE00EE100AD4ED080A30EE23
:10097000200A84ED080AE06AFFF713FE41EC100B31
:1009800001F02EFFB0EE40AAF0EE60AA18EE100AB9
:10099000FFF707FE53EC1A2BFFF7FCFC53EC1B2B65
:1009A000FFF7F8FCFFF740FE00EE100AD4ED090A4D
:1009B000002030EE200A79EE680A84ED090A94EDF1
:1009C000111A80EE810AD4ED0A0A30EE200A84ED75
:1009D0000A0A6060A060BDEC088B10BD000000201A
:1009E000000000000000E03F70B53F4C2DED068B8D
:1009F00094ED051A61EE008A94ED060A20EE208A35
:100A000018EE100AFFF7CDFD41EC190B18EE900A15
:100A1000FFF7C7FD41EC100BB0EE491AF0EE691A72
:100A200000F072F8B0EE409AF0EE609A18EE100AFC
:100A3000FFF7B7FD41EC1A0B18EE900AFFF7B1FD76
:100A400041EC100BB0EE4A1AF0EE6A1A00F051F8C1
:100A5000206CB0EE408AF0EE608A0646FFF7A1FDFA
:100A600041EC1A0BE0690546FFF79BFD53EC192B8F
:100A7000FFF790FC53EC1A2BFFF78CFC41EC190BA1
:100A80002069FFF768FD53EC192BFFF7DCFBFFF73C
:100A90006FFD20613046FFF784FD41EC190B2846BD
:100AA000FFF77FFD53EC182BFFF774FC53EC192B69
:100AB000FFF770FC41EC180BE068FFF74CFD53ECBE
:100AC000182BFFF7C0FBFFF753FD0246E060002143
:100AD000064801F0AFFA22690421BDEC068BBDE89F
:100AE0007040024801F0A6BA0000002098000020E3
:100AF000704710B500F008F851EC100B81F0004180
:100B000041EC100B10BD000010B52DED040B2DEDC8
:100B1000108B8EB0B0EE40DAF0EE60DA9FEDBD8B58
:100B2000B0EE484AF0EE684A9FEDBCABB0EE4A3AF0
:100B3000F0EE6A3A9FEDBB9BB0EE492AF0EE692ACF
:100B40009FEDBACBB0EE4C1AF0EE6C1A02F062FBDD
:100B5000B0EE40FAF0EE60FA9FEDB6BBB0EE483A68
:100B6000F0EE683AB0EE4B4AF0EE6B4AB0EE482A2F
:100B7000F0EE682AB0EE4A1AF0EE6A1AB0EE4D0AAC
:100B8000F0EE6D0A02F046FBB0EE40EAF0EE60EAED
:100B90009FEDAAABB0EE4A4AF0EE6A4A9FEDA93B40
:100BA000B0EE4B2AF0EE6B2AB0EE481AF0EE681A5F
:100BB000B0EE4D0AF0EE6D0A02F02CFBB0EE40BA3A
:100BC000F0EE60BAB0EE484AF0EE684AB0EE493A4C
:100BD000F0EE693AB0EE492AF0EE692AB0EE4C1A0E
:100BE000F0EE6C1A9DED200B02F014FBB0EE40DA33
:100BF000F0EE60DA9FED934BB0EE483AF0EE683AD3
:100C0000B0EE482AF0EE682AB0EE491AF0EE691A02
:100C10009DED200B02F0FEFAB0EE40CAF0EE60CA85
:100C2000B0EE4A4AF0EE6A4A9FED863B9FED852B77
:100C3000B0EE481AF0EE681A9DED200B02F0EAFAC9
:100C4000B0EE40AAF0EE60AA8DED0C9B9FED7F0BFD
:100C50008DED0A0B9FED7F0B8DED080B9FED790B52
:100C600053EC1D2B8DED060B51EC1F0BFFF792FB88
:100C700041EC190B53EC1C2B51EC1F0BFFF78AFBBB
:100C800041EC100B53EC1A2B8DED040B51EC1F0BA8
:100C9000FFF780FB41EC100B53EC1D2B8DED020B8D
:100CA00051EC1E0BFFF776FB41EC1F0B53EC1C2B9A
:100CB00051EC1E0BFFF76EFB41EC100B53EC1A2BA3
:100CC0008DED000B51EC1E0BFFF764FB41EC1E0B8E
:100CD00053EC1D2B51EC1B0BFFF75CFB41EC1D0B88
:100CE00053EC1C2B51EC1B0BFFF754FB41EC1C0B82
:100CF00053EC1A2B51EC1B0BFFF74CFB41EC1A0B7E
:100D0000B0EE4F1AF0EE6F1A9DED040B02F064FA8C
:100D1000B0EE40BAF0EE60BAB0EE4D1AF0EE6D1AD9
:100D20009DED000B02F058FAB0EE401AF0EE601A9A
:100D30009DED020B02F050FAB0EE40DAF0EE60DA10
:100D4000B0EE4C1AF0EE6C1AB0EE4E0AF0EE6E0AEF
:100D500002F042FAB0EE40CAF0EE60CA53EC1B2B30
:100D600051EC190BFFF76FFA53EC1D2BFFF76BFAE1
:100D700053EC1C2BFFF767FA53EC1A2BFFF763FABF
:100D80009DED060B41EC1E0B53EC1A2B51EC100B96
:100D9000FFF700FB9DED080B41EC1A0B53EC1C2BED
:100DA00051EC100BFFF7F6FA41EC1C0B53EC1D2B2A
:100DB00051EC180BFFF7EEFA9DED0A0B41EC180B06
:100DC00053EC1B2B51EC100BFFF7E4FA53EC192BEF
:100DD0009DED0C9B41EC1B0B51EC190BFFF7DAFA64
:100DE00053EC1B2BFFF72FFA53EC182BFFF72BFAC2
:100DF00053EC1C2BFFF727FA53EC1A2BFFF723FABF
:100E000053EC1E2BFFF738FB0EB041EC100BBDEC82
:100E1000108B1FBD00000000000000009A999999F6
:100E20009999B9BF000000000000F0BF9A99999904
:100E30009999F1BF9A9999999999B93F9A999999DC
:100E40009999F13F000000000000F03F9A999999AC
:100E50009999D9BF9A9999999999D93F0348016865
:100E6000491C0160082000F067B900000400002060
:100E700003480168491C0160102000F05DB90000C2
:100E80000800002000EE100AF3EE010A9FED041A9C
:100E9000B8EEC00A60EE200A80EE810A70470000BA
:100EA00000E6AA48074810B570EEC00A90ED101A87
:100EB00080EE810A10EE100AFFF773FB41EC100B75
:100EC00010BD00000000002030EE600A10B510EEEA
:100ED000100AFFF766FB41EC100B10BD10B52DEDAD
:100EE0000E8BB0EE62DAF0EE429AB0EE619AB0EE9E
:100EF00041EAB0EE608AF0EE40AA9FED8D0AB4EEB2
:100F0000498AF0EE408AF1EE10FA79D07EEE690A55
:100F100038EE490AB7EE00BAB4EEC98AF1EE00EA3B
:100F2000C0EE80DA69EE880A4EEE490AC0EE808A89
:100F3000B8EE000A29EE00AAB0EE000A0DEEADBA36
:100F40006DEE800A00EEA8AA00EEE9AA78EEE90AA2
:100F500060EEA0BA49EE09BA4AEEEABAF1EE10FA2A
:100F60002BEE000A10EE100A20D2FFF71AFB2AEE31
:100F70000A0A6BEE2E0A41EC1C0B00EEEB0A10EE97
:100F8000100AFFF70EFB41EC100B01F08DFCB0EEE8
:100F900040BAB1EE4A0AF0EE60BA10EE100AFFF75E
:100FA00000FB53EC1B2BFFF7EFF91FE0FFF7F9FAFB
:100FB0002AEE0A0A6BEE2E0A41EC1C0B00EEEB0A3D
:100FC00010EE100AFFF7EDFA41EC100B01F06CFC8B
:100FD000B0EE40BAB1EE4A0AF0EE60BA10EE100A76
:100FE000FFF7DFFA53EC1B2BFFF72DF953EC1C2B0B
:100FF000FFF742FAFFF718FB00EE100A4DEE808A69
:10100000B4EE498AF1EE10FA0ED1B4EEE9EAF1EE4F
:1010100010FA04D2B0EE480A79EEEA8A04E003DD61
:1010200079EEAA8AB0EE480A1DEE100A30EE498A1F
:1010300078EEE98AFFF7B5FA41EC100B01F06CFB92
:10104000B0EE409AF0EE609A18EE900AFFF7A9FA17
:1010500053EC192BFFF79EF941EC190B1DEE100A0A
:10106000FFF79FFA41EC100B01F0BAFBB0EE40AA7B
:10107000F0EE60AA18EE100AFFF793FA53EC1A2B61
:10108000FFF788F953EC192BFFF77EF9FFF7CCFA3D
:1010900009EE100A1DEE100AFFF783FA41EC100B5F
:1010A00001F09EFBB0EE40AAF0EE60AA18EE900AA6
:1010B000FFF777FA53EC1A2BFFF76CF941EC1A0B98
:1010C0001DEE100AFFF76DFA41EC100B01F024FB46
:1010D000B0EE40BAF0EE60BA18EE100AFFF761FA0F
:1010E00053EC1B2BFFF756F953EC1A2BFFF7ABF819
:1010F000FFF79AFA00EE100AC9EE000A10EE900A05
:10110000FFF74FFA41EC100B01F09AF951EC100B7C
:10111000FFF78AFA00EE100A3DEE400A10EE100AC0
:10112000FFF73FFABDEC0E8B41EC100B10BD000039
:101130000000000070470000044910B50A68024230
:1011400002D00860FFF7F6FF10BD0000143C01401C
:101150002DE9F84FDFF87CB100224FF001084FF085
:10116000030A4FF00F090BF1040E00BF0B6808FAD9
:1011700002F42340A3426ED14D68022D01D0122DFE
:101180000ED1D50800EB850CDCF820505607F70E81
:1011900009FA07F6B5430E69BE402E43CCF820602D
:1011A000066855000F790AFA05FC07F0030726EADE
:1011B0000C06AF40374307604E68012E05D0022E63
:1011C00003D0112E01D0122E0ED18668CF6826EAE8
:1011D0000C06AF40374387604668A6430C79C4F3DA
:1011E0000014944034434460C6688C6826EA0C06B8
:1011F000AC403443C4604C68E40065D5364C256887
:1012000045F480452560246822F0030504F48044F9
:101210000094324C2E19D6F8084895072F0F09FA7A
:1012200007F5AC432E4DA84201D1002524E02D4DF9
:10123000A84201D101251FE02B4DA84201D1022572
:101240001AE02A4DA84201D1032515E0284DA842F5
:1012500002D1042510E037E0264DA84201D1052532
:101260000AE0254DA84201D1062505E0234DA842FC
:1012700001D1072500E00825BD402543C6F80858E0
:10128000DBF800405D464E689C43F60300D51C43E6
:101290002C60DEF8004075464E689C43B60300D5CE
:1012A0001C432C600B4D08352C684E689C43F6029D
:1012B00000D51C432C60074D0C352C684E689C43B0
:1012C000B60200D51C432C60521C102AFFF44EAF0E
:1012D000BDE8F88F003C0140443802400030014036
:1012E000000002400004024000080240000C0240DE
:1012F000001002400014024000180240001C02408E
:10130000014880687047000048000020024881685A
:101310000278114481607047480000200B4810B5E6
:10132000016841F400710160016841F4806101606D
:10133000016841F480710160032000F06DF8002025
:1013400000F006F800F024F8002010BD003C024038
:1013500070B50D4D04464FF47A712878B1FBF0F06A
:101360000A490968B1FBF0F000F0C0FA48B9102C46
:1013700007D200222146501E00F02EF800206C609B
:1013800070BD012070BD0000480000205400002006
:101390000A4808B5016841F480410160006800F422
:1013A000804000900548001F016841F080510160B5
:1013B000006800F08050009008BD000044380240F2
:1013C00000F01F02012191404009800000F1E0205F
:1013D000C0F8001170470000F0B40E4B1B680C46BB
:1013E000C3F30223C3F10705042D00D90425191DF9
:1013F000072901D2002300E0DB1E012606FA05F1D1
:10140000491E214099409E40761E16403143F0BC53
:1014100000F0FEBD0CED00E0064900F00702086890
:101420004FF6FF03184040EA0220034A10430860C9
:10143000704700000CED00E00000FA052DE9F047D0
:101440000E46050065D0DFF81481D8F80000F7B229
:1014500000F00F00B04207D288F80070D8F8000002
:1014600000F00F00B04254D128683D4C810712D5DE
:10147000400703D5206840F4E0502060287800073A
:1014800003D5206840F4604020602068A96820F0FF
:10149000F000084320602878C0072DD030496868E4
:1014A0000839012812D0022813D0032811D0096866
:1014B000890700292DDA216821F003010143216009
:1014C000FFF71EFF814641F2883A0EE00968890362
:1014D000EFE709688901ECE7FFF712FFA0EB0901CC
:1014E000514502D90320BDE8F0872068696800F003
:1014F0000C00B0EB810FEFD1D8F80010404601F09E
:101500000F01B14207D90770006800F00F00B04228
:1015100001D00120E7E72878400705D52068E96871
:1015200020F4E050084320602878000706D52068A2
:10153000296920F4604040EAC100206000F016F8FC
:101540002168084AC1F30311515CC840064908608C
:101550000020FFF7FDFE0020C5E70000003C024030
:1015600008380240FC32000854000020154810B52D
:10157000006810F00C02144813D01449042A0FD04C
:10158000082A0ED10F4C241F2268236802F03F0264
:101590005B0207D52068C0F38810A0FB010106E0BC
:1015A000084610BD2168C1F38811A1FB000100238A
:1015B000FEF706FE2168C1F30141491C4900B0FB5A
:1015C000F1F010BD083802400024F40040787D019D
:1015D0002DE9F84F050076D02878DFF8F8B2BE4C38
:1015E000C00749D0DBF800105846C1F3810101293A
:1015F00008D00068C0F3810002280AD1201D0068CD
:10160000400206D52068800336D568680028E2D0FD
:1016100032E06868B0F5803F10D0B0F5A02F2068A8
:1016200010D020F480302060206820F480202060DA
:101630006868A0B1FFF764FE06460CE0206840F43D
:101640008030F4E740F480202060F7E7FFF758FE91
:10165000801B642873D820688003F7D50CE0FFF75F
:101660004FFE064605E000BFFFF74AFE801B6428D8
:10167000F0D820688003F7D42878DFF860828007EC
:101680004FF000093ED5DBF80010584611F00C0F62
:1016900009D00068C0F3810002280BD18D48001FDB
:1016A0000068400206D42068800715D5E868012844
:1016B00009D111E0E868B8B10120C8F80000FFF7CF
:1016C0001FFE064605E002E1FFF71AFE801B022816
:1016D000C0D820688007F7D52068296920F0F80075
:1016E00040EAC10020600DE0C8F80090FFF708FE56
:1016F000064604E0FFF704FE801B02281FD820687E
:101700008007F7D42878000722D5724E744869699B
:101710006C3671B101210160FFF7F2FD074604E06C
:10172000FFF7EEFDC01B022809D830688007F7D507
:101730000EE0C0F80090FFF7E3FD074605E083E008
:10174000FFF7DEFDC01B02287ED830688007F7D483
:101750002878400768D5DFF87CA100270AF1380A0D
:10176000DAF80000C0000BD4DAF8001041F0805124
:10177000CAF80010DAF80000012700F0805000904D
:10178000584E3068C00510D4306840F48070306026
:10179000FFF7B6FD009005E0FFF7B2FD0099401A93
:1017A000022851D83068C005F6D54A4EA868683678
:1017B00001280FD00528306810D020F001003060DB
:1017C000306820F004003060A868B8B1FFF798FDD9
:1017D00000900FE0306840F00100F4E740F00400B2
:1017E0003060F7E7FFF78CFD0099411A41F288302D
:1017F000814264D830688007F4D50EE0FFF780FDA1
:10180000009007E0FFF77CFD0099411A41F2883013
:10181000814254D830688007F4D42FB1DAF8001030
:1018200021F08051CAF80010A869C0B3DBF800109D
:10183000C1F3810102294AD00228484607D0C8F8DE
:101840006000FFF75DFD00E039E005463AE04746FD
:10185000C8F86000FFF754FD064604E0FFF750FDAE
:10186000801B02282BD820688001F7D4D5E9070116
:101870000843A96A1C4A490802EB01416A6A41EA25
:101880008211084395F82C1040EA01611148001FAD
:10189000016001203866FFF733FD054605E014E0DE
:1018A000FFF72EFD401B022809D820688001F7D5DC
:1018B0000BE000BFFFF724FD401B022802D90320E4
:1018C000BDE8F88F20688001F4D40020F8E70120FB
:1018D000F6E70000083802400038024000004742A6
:1018E000800E4742007000400000FFFF10B5401E10
:1018F000B0F1807F01D3012010BD4FF0E024606182
:101900000F21601700F084FB0020A06107202061F8
:10191000002010BD7047704730B590F83820012A7C
:1019200020D0012280F83820022380F83930036863
:101930005C6824F070045C6003685C680D682C438C
:101940005C6003689C6824F080049C6003689C6869
:1019500049680C439C6080F83920002180F83810D9
:10196000084630BD022030BD10B5040003D094F805
:10197000390010B107E0012010BD002084F83800C4
:10198000204600F00DF8022084F83900211D20685F
:1019900000F0DAFB012084F83900002010BD0000BF
:1019A00008B501681048B1F1804F0BD00F4A914241
:1019B00007D1016841F004010160006800F00400F3
:1019C000009008BD016841F001010160006800223B
:1019D00000F00100009011461C20FFF7FDFCBDE85F
:1019E00008401C20FFF7ECBC4038024000080040D3
:1019F0000168CA6842F00102CA600068016841F0EB
:101A0000010101600020704770B5044690F838006D
:101A1000012817D0012584F83850022084F83900B5
:101A20002068826822F0770222F47F428260086890
:101A3000502837D00DDC202859D005DC88B3102879
:101A400041D151E0022070BD302853D040283AD116
:101A50003FE060282ED070280BD0B0F5805F03D017
:101A6000B0F5005F2FD110E02068816821F00701F8
:101A700015E0CB68D1E90121206800F0D0FB216896
:101A8000886840F0770088601DE0CB68D1E90121CB
:101A9000206800F0C4FB2068816841F480418160C7
:101AA00011E01EE0CA684968206800F081FC5021FE
:101AB000206806E0CA684968206800F08AFC602156
:101AC000206800F0B6FB84F83950002084F8380014
:101AD00070BDCA684968206800F06AFC402120682F
:101AE000EFE700212068ECE710212068E9E72021DA
:101AF0002068E6E730212068E3E7704770B50446C8
:101B0000006801694FF00005C943890715D4C16811
:101B1000C943890711D4E91E01610120207620689C
:101B200080698007204602D0FFF7E7FF04E000F05D
:101B3000C3F8204600F045F9257620680169C943BD
:101B4000490717D4C168C943490713D46FF004018A
:101B50000161022020762068806910F4407F2046D1
:101B600002D0FFF7CAFF04E000F0A6F8204600F01C
:101B700028F9257620680169C943090716D4C16888
:101B8000C943090712D46FF00801016104202076CF
:101B90002068C0698007204602D0FFF7AEFF04E04E
:101BA00000F08AF8204600F00CF9257620680169DB
:101BB000C943C90617D4C168C943C90613D46FF015
:101BC00010010161082020762068C06910F4407F70
:101BD000204602D0FFF791FF04E000F06DF82046A8
:101BE00000F0EFF8257620680169C943C90708D1DC
:101BF000C168C943C90704D1891E0161204600F0AC
:101C0000FDF820680169C943090609D4C168C943C0
:101C1000090605D46FF0800101612046FFF77AFEC6
:101C200020680169C943490609D4C168C943490606
:101C300005D46FF040010161204600F02FF92068C3
:101C40000169C94389060BD4C168C943890607D411
:101C50006FF0200101612046BDE87040FFF75BBED8
:101C600070BD000010B586B0044614216846FEF72A
:101C7000DFFA0E492068884215D10D48002102681C
:101C800042F008020260006800F0080005904FF47E
:101C9000704000900220CDE9010103900490694654
:101CA0000448FFF755FA06B010BD000000080040D8
:101CB00030380240000C0240704770B5044690F87E
:101CC00038000D4601280DD0012684F83860022026
:101CD00084F8390042B1042A18D0082A2AD00C2AE4
:101CE0004DD139E0022070BD206800F0ABFA2068C9
:101CF000816941F0080181612068816921F0040156
:101D00008161206881692A69114311E0206800F02F
:101D1000C5FA2068816941F40061816120688169A8
:101D200021F480618161206881692A6941EA022188
:101D3000816124E0206800F0E3FA2068C16941F085
:101D40000801C1612068C16921F00401C1612068F6
:101D5000C1692A69114311E0206800F001FB206885
:101D6000C16941F40061C1612068C16921F48061E9
:101D7000C1612068C1692A6941EA0221C16184F810
:101D80003960002084F8380070BD10B5040003D01D
:101D900094F8390010B107E0012010BD002084F84C
:101DA0003800204600F00CF8022084F83900211D8C
:101DB000206800F0C9F9012084F83900002010BD26
:101DC0007047704710B504460068012200F01CFA05
:101DD00008492068884202D00749884203D1416CF3
:101DE00041F4004141642068016841F00101016053
:101DF000002010BD000001400004014010B524493E
:101E000000680968884242D1224CA068FFF73AF87E
:101E1000F0EE401A6068FFF735F8F0EE400AB0EED9
:101E2000610AFEF777FDD4ED0A0A94ED0F0A00F07F
:101E3000E3FA04F1200094ED0D1AD4ED0C0A9FEDA5
:101E4000160AD0EC031AFFF749F851EC100BFEF715
:101E5000EBFB00EE100AD4ED0A0AFFF735F851EC5F
:101E6000100BFEF7E1FB00EE900AC4ED0F0A94EDB3
:101E70000E0AFFF717F851EC100BFEF7D5FB94EDA7
:101E80000F0ABDE8104000EE900AFEF7ADBD10BD90
:101E90005C000020000000209A99193F7047FEE77F
:101EA00000B587B014216846FEF7C2F91A48002130
:101EB000026842F008020260026802F0080205921D
:101EC000026842F001020260026802F0010205921B
:101ED000026842F002020260006800F00200059011
:101EE000182000900D48CDE9010169460C48FFF724
:101EF0002FF9002211460920FFF76EFA0920FFF79B
:101F00005FFA002211460A20FFF766FA0A20FFF75F
:101F100057FA07B000BD0000303802400000111031
:101F20000004024010B586B00024114800940194CA
:101F30000294039404944FF080410594016042F2AE
:101F4000CF01C0E9011440F2E731C0E90314FFF703
:101F50000BFD4FF48050009069460548FFF754FD93
:101F6000049404A902480594FFF7D6FC06B010BDFE
:101F70005C00002010B58EB00024079408940994EA
:101F80000A940B941C2168460C94FEF751F91E48E4
:101F90001C4901601421C0E9011440F28F11C0E90D
:101FA0000314FFF7E1FC4FF48050079007A916488F
:101FB000FFF72AFD1448FFF7E8FE0B940BA912481F
:101FC0000C94FFF7A9FC6020CDE9000402940022E4
:101FD00069460D480494FFF770FE042269460A48DA
:101FE000FFF76BFE082269460748FFF766FE0C22E2
:101FF00069460548FFF761FE0348FFF733FE0EB060
:1020000010BD00000008004098000020FEE7704767
:102010000907090E002806DA00F00F0000F1E020A1
:1020200080F8141D704700F1E02080F8001470471C
:1020300070477047642A01DD642202E0002A00DA5A
:102040000022074B1B885B1C5343642293FBF2F274
:10205000036821F003003430521E1A50704700000C
:1020600000000020FFF752B930B593B03021684628
:10207000FEF7DEF814210CA8FEF7DAF81848002560
:10208000016841F080510160006800F080501190BB
:102090001448016841F4804101600068022400F4A2
:1020A0008040119001200390102004900094069429
:1020B0000820CDE907505420CDE9090404200B90F5
:1020C0006846FFF785FA0CA90F2081E83100E0028D
:1020D000CDE90F0502210CA8FFF7B0F913B030BD10
:1020E00040380240007000401048016841F470011F
:1020F00001600F48016841F0010101600C4A0021B4
:102100000832116002680B4B1A400260031D0A4A34
:102110001A60026822F48022026005480C300160D7
:1021200002495806803908607047000088ED00E0D9
:1021300000380240FFFFF6FE103000240148FFF790
:10214000DDBC00005C000020F0B50268234B244D8C
:10215000244E254F254C4FF0804C984209D06045C5
:1021600007D0A84205D0B04203D0B84201D0A04267
:1021700004D122F0700E4A6842EA0E0298421BD047
:10218000604519D0A84217D0B04215D0B84213D03C
:10219000A04211D0164DA8420ED0164DA8420BD029
:1021A000154DA84208D0154DA84205D0144DA8429F
:1021B00002D0144DA84203D122F44075CA682A43C4
:1021C00002608A68C2620A688262984201D0A042B4
:1021D00001D10969016301214161F0BD00000140A5
:1021E0000004004000080040000C004000040140D2
:1021F00000400140004401400048014000180040F8
:10220000001C00400020004010B50123046A8B40F0
:102210009C430462036A8A401343036210BD10B5F5
:10222000846842EA032224F47F440A432243826002
:1022300010BD826822F070020A4342F007018160FB
:102240007047000030B5026A22F001020262026AA1
:10225000436884690D6824F07304254322F0020466
:102260008A6822430B4CA04202D00B4CA0420BD1F7
:1022700022F00804CA6823F4407322434C6922F018
:1022800004021C438B6923434360856149684163B1
:10229000026230BD000001400004014030B5026A16
:1022A00022F010020262026A436884690D6824F415
:1022B000E64444EA05248D6822F0200242EA051231
:1022C0000D4DA84202D00D4DA8420ED1CD6822F08E
:1022D000800242EA05124D6923F4406343EA850314
:1022E0008D6922F0400243EA8503436084614968B6
:1022F0008163026230BD0000000001400004014023
:1023000030B5026A22F480720262036A4268C469CC
:1023100023F4007324F073050C682C438D6843EAA2
:1023200005230D4DA84202D00C4DA8420ED1CD6818
:1023300023F4006343EA05234D6922F4405242EA44
:1023400005128D6923F4806342EA05124260C4617C
:102350004968C163036230BD0000014000040140D0
:1023600030B5026A22F480520262046A4268C3698C
:102370000D6823F4E64343EA05238D6824F40054F2
:1023800044EA0534084DA84202D0084DA84204D1C1
:102390004D6922F4804242EA85124260C361496875
:1023A0000164046230BD00000000014000040140EF
:1023B00010B5036A046A24F001040462846924F0FD
:1023C000F00444EA021423F00A020A438461026220
:1023D00010BD10B5036A23F0100303628369046A19
:1023E00023F4704343EA023224F0A00343EA0111CC
:1023F0008261016210BD0000024880ED0E0AC0ED4E
:102400000B0A704700000020FEE703B4019841006A
:10241000009850EAC12018BF04204A0D18BF40F0B0
:10242000010040F2FF72B2EB515F08BF40F00200C2
:10243000012808BF052002B070470000000000001E
:1024400070B59B482DED020B2DED068B079D25F0F9
:102450000044A04218DC9748844202DC0AD1069866
:1024600040B19DED060BBDEC068B02B0BDE870409F
:1024700000F042BE002DCCBF9FED8F0B9FED900B67
:10248000BDEC068B02B070BD8F48A04215DD8F48B1
:10249000A042D8BF4FF0FF3458DD9DED060B51EC44
:1024A000100BFFF7B2FF042808BF00F041FE9DEDBE
:1024B000060BBDEC068B02B070BD9DED060B51EC1A
:1024C000100B00F05BFECDE9060181489FED828B89
:1024D000A0423CDD8248A0421FDD00249FED82AB7C
:1024E0009DED060B53EC1A2B51EC100BFDF7ABFED8
:1024F0009DED060B41EC190B53EC1A2B51EC100B14
:10250000FDF748FF53EC182BFDF73EFF53EC192B5A
:10251000FDF7B2FFCDE9060149E09DED060B012470
:1025200053EC182B51EC100BFDF78DFE9DED060BB7
:1025300041EC190B53EC182B51EC100BFDF724FF59
:1025400053EC192BFDF798FFCDE906012FE0684801
:10255000A0421FDD02249FED689B9DED060B53EC0E
:10256000192B51EC100BFDF715FF53EC182BFDF751
:102570006AFE9DED060B41EC180B53EC192B51EC48
:10258000100BFDF701FF53EC182BFDF775FFCDE99C
:1025900006010CE09DED060B032453EC102B9FED80
:1025A000580B51EC100BFDF767FFCDE906019DEDCF
:1025B000060B53EC102B51EC100BFDF7EBFE41EC2E
:1025C000180B53EC182BFDF7E5FE41EC190B4E48A8
:1025D0000621B0EE490AF0EE690A784400F078FC72
:1025E00053EC182B51EC100BFDF7D4FE41EC180BFB
:1025F0004648B0EE490AF0EE690A0521784400F039
:1026000067FC53EC192B51EC100BFDF7C3FE41ECAA
:10261000100B51EC180B53EC102B002C0EDAFDF7BD
:1026200012FE9DED061B53EC112BFDF7B3FE9DED45
:10263000061B53EC112BFDF7AAFE35E0FDF703FE58
:102640009DED061B53EC112BFDF7A4FE41EC100B86
:102650002F48784400EBC40090ED001B51EC100BA8
:1026600053EC112BFDF790FE9DED061B53EC112B47
:10267000FDF78AFE41EC100B2648784400EBC400BD
:1026800090ED001B51EC100B53EC112BFDF77FFE6E
:1026900041EC100B002DA2BFBDEC068B02B070BD4B
:1026A00051EC100B81F0004141EC100B01E70000F0
:1026B000000010440000F07F182D4454FB21F93F26
:1026C000182D4454FB21F9BF0000DC3F0000203EE0
:1026D0000000F33F00000000000000000000F03F99
:1026E0000000E63F00000000000000000000004085
:1026F0000080034000000000000000000000F83FE0
:10270000000000000000F0BF9A0D0000500D000016
:10271000DA0C0000920C000010B52F499FED2C1B25
:102720002DED020B84B0059820F000408842D8BF00
:102730009DED040B2DDD2949884209D1049840B94B
:102740004FF0010000F014FD00F0E2FC06B010BDF7
:1027500005DB9DED040B00F0CFFC06B010BD684614
:102760009DED040B00F0E0F810F0030004BF9DEDB8
:10277000021B9DED000B0CD001280ED09DED021B1D
:102780009DED000B022817D0012000F01DFC06B0C3
:1027900010BD00F0E5FA06B010BD9DED021B9DEDE9
:1027A000000B012000F010FC51EC100B81F00041F7
:1027B00006B041EC100B10BD00F0D2FA51EC100B3A
:1027C00081F0004106B041EC100B10BD000000008C
:1027D0000000000000000000FB21E93F0000F07F46
:1027E00010B52F499FED2C1B2DED020B84B00598E1
:1027F00020F000408842DCBF00209DED040B32DD5C
:102800002849884209D1049840B94FF0010000F0EE
:10281000AFFC00F07DFC06B010BD05DB9DED040BA8
:1028200000F06AFC06B010BD68469DED040B00F098
:102830007BF810F0030011D0012818D09DED021B89
:102840009DED000B02281AD000F08AFA51EC100B13
:1028500081F0004106B041EC100B10BD9DED021B54
:102860009DED000B012000F0AFFB06B010BD9DED0B
:10287000021B9DED000B00F073FA06B010BD0120A5
:1028800000F0A2FB51EC100B81F0004106B041ECCE
:10289000100B10BD00000000000000000000000050
:1028A000FB21E93F0000F07F00B52DED048BB0EE79
:1028B000409AF0EE609A83B051EC190BFDF795FF4A
:1028C00041EC180B18EE100A18EE901A8DED008BE3
:1028D000002818BF0120084320F00040C0F17F60AD
:1028E00000F1E040C00F14D019EE101A19EE900A52
:1028F0008DED009B002918BF0121084320F0004006
:10290000C0F17F6000F1E040C00F04BF012000F083
:102910002FFCB0EE480A03B0F0EE680ABDEC048B61
:1029200000BD0000000000002DE9F14F04462DED30
:10293000020B2DED088B8AB09FEDE70B80ED020BAB
:10294000139EE74826F0004585420ADC9DED120BF8
:10295000002084ED000B0AB0BDEC088B03B0BDE88D
:10296000F08FE0489FEDE0AB9FEDE1BBA84247DD73
:10297000E14F9FEDE39B9FEDE48B9DED120B53EC3C
:102980001A2B51EC100B002E1CDDFDF7FDFC41EC69
:10299000100BBD4208D053EC1B2B51EC100BFDF774
:1029A000F3FCC4E900010BE053EC192B51EC100BC4
:1029B000FDF7EAFC53EC182BFDF7E6FCC4E9000137
:1029C0000120C8E7FDF73FFC41EC100BBD4208D0E9
:1029D00053EC1B2B51EC100BFDF735FCC4E9000147
:1029E0000BE053EC192B51EC100BFDF72CFC53ECC6
:1029F000182BFDF728FCC4E900014FF0FF30AAE7CF
:102A0000C348A84279DB9DED120B51EC100B00F08E
:102A1000B5FB41EC180B9FEDC00B53EC102BFDF7F1
:102A2000B9FC9FEDBF1B53EC112BFDF70CFCFDF720
:102A300050FF0746FDF73CFF41EC190B53EC1A2BF6
:102A4000FDF7A8FC53EC182BFDF7A1FC41EC180B8B
:102A500053EC1B2B51EC190BFDF79CFCDFF8C8A2C3
:102A600041EC100B4FEA15580125FA4453EC102B9A
:102A700051EC180BFDF788FC032DC4E900013DD093
:102A8000C1F30A5005EB4511A8EB00001139814252
:102A900034DA0AEB051BB0EE48AA9BED000BF0EE12
:102AA00068AA53EC102B51EC190BFDF773FC41ECA9
:102AB0001B0B51EC1A0B53EC1B2BFDF765FC41EC87
:102AC000180B51EC1A0B53EC182BFDF75DFC53EC73
:102AD0001B2BFDF759FC9BED020B41EC1A0B53EC41
:102AE000102B51EC190BFDF755FC53EC1A2BFDF78D
:102AF0004BFC41EC100B6D1CB8E70EE0002EA8BF9C
:102B00003846BFF628AF94ED000B51EC100B81F066
:102B10000041C4E9000178421DE7C6F3130040F408
:102B2000801EC6F30A50A0F2F530471100F01F05D1
:102B3000C5F12000DDF848B008900020069007900D
:102B40000520EC467949002D07EB0002794408BFC7
:102B500051F8221009D051F8223001EB8201AB402C
:102B60004A68089922FA01F11943A1FB0E26A1FB3C
:102B70000B131A449A4234BF0123002303EB0608C7
:102B80000CEB8003D3E901A60E448E4234BF012131
:102B9000002192448A4411B1924502D903E0924542
:102BA00001D2012100E00021C3E901A641444CF813
:102BB0002010011EA0F10100C4DC029800F10050B9
:102BC000850F0298DDE903678000DDF81480FDF7CA
:102BD0006FFE41EC1A0B3046FDF7BDFC9FED541B18
:102BE00053EC112BFDF7D6FB41EC1B0B3846FDF7E0
:102BF000B2FC9FED511B53EC112BFDF7CBFB41ECCD
:102C0000180B4046FDF7A7FC9FED4D1B53EC112B15
:102C1000FDF7C0FB41EC190B51EC180B53EC192BD1
:102C2000FDF711FB53EC1B2BFDF70DFB53EC1A2B9F
:102C3000FDF709FBCDE90801002008909DED080B88
:102C400053EC1A2B51EC100BFDF79EFB53EC1B2B96
:102C5000FDF79AFB53EC182BFDF796FB53EC192B61
:102C6000FDF795FB9FED381B53EC112BFDF792FB05
:102C70009FED370B41EC180B53EC102B9DED080B1F
:102C800051EC100BFDF786FB53EC182BFDF7DBFA2C
:102C90009FED310B41EC180B53EC102B9DED080B05
:102CA00051EC100BFDF776FB53EC182BFDF7CBFA2C
:102CB00041EC100B139810F0004F06D06D4251EC10
:102CC000100B81F0004141EC100B284684ED000B05
:102CD00041E60000000000000000000000000000CD
:102CE000FB21E93F7CD9024000004054FB21F93F21
:102CF0003163621A61B4D03DFB21F93F000000004E
:102D00000000601A61B4D03D7370032E8A19A33B92
:102D1000FB2139410000000083C8C96D305FE43FEA
:102D2000000000000000E03F6A090000B808000051
:102D3000000000000000103E000000000000103CF9
:102D4000000000000000103A182D4454FB21F93D0A
:102D50003326A611460B113C00000054FB21F93D1F
:102D600010B52DED040B2DED088B82B0B0EE419A1D
:102D7000F0EE619A0B9820F000449FED4BABB4F15C
:102D8000795F11DA9DED0A0B51EC100BFDF7A1FDF7
:102D9000002801BFB0EE4A0AF0EE6A0A02B0BDECAC
:102DA000088B04BF04B010BD9DED0A0B53EC102B33
:102DB00051EC100BFDF7EEFA41EC180B3C480621E4
:102DC000B0EE480AF0EE680A784400F081F853EC5F
:102DD000182B51EC100BFDF7DDFA9DED0A0B41ECC1
:102DE0001B0B53EC192B51EC100BFDF7D3FA41ECF4
:102DF000190B53EC1B2B51EC180BFDF7CBFA53ECD2
:102E0000192BFDF7C1FA9FED2C0B41EC190B53EC7C
:102E1000102B51EC180BFDF7BDFA41EC100B2848B4
:102E2000844210DA53EC192B51EC100BFDF7ACFA7D
:102E300053EC1A2BFDF7ABFA41EC100B02B0BDECD2
:102E4000088B04B010BD1F48A042BCBF9FED1E1BE5
:102E50008DED001B06DBA4F5001001900020009012
:102E60009DED001B51EC100B53EC112BFDF78CFA70
:102E70009DED000B41EC180B53EC102B51EC1A0B91
:102E8000FDF782FA41EC1A0B53EC192B51EC180B9D
:102E9000FDF77AFA53EC1A2BFDF779FA41EC100B97
:102EA000CCE7000000000000000000000000F03F40
:102EB000DC05000000000000000000000000E03F12
:102EC0003333D33F0000E93F000000000000D23F51
:102ED00070B504462DED028B4D1E00EBC500B0EE23
:102EE000408AF0EE608A90ED000B35F0060017D0B6
:102EF00053EC182B51EC100BFDF74CFA41EC100B76
:102F00006D1E04EBC50090ED001B51EC100B53EC53
:102F1000112BFDF798F941EC100B35F00600E7D1C5
:102F2000022D36D0042D1CD0062D1CBFBDEC028B0B
:102F300070BD53EC182B51EC100BFDF72BFA94EDF0
:102F40000A1B53EC112BFDF77EF953EC182BFDF700
:102F500021FA94ED081B53EC112BFDF774F941ECA9
:102F6000100B53EC182B51EC100BFDF713FA94EDEA
:102F7000061B53EC112BFDF766F953EC182BFDF7EC
:102F800009FA94ED040B53EC102BFDF75CF941ECBE
:102F9000100B53EC182B51EC100BFDF7FBF994EDD3
:102FA000021B53EC112BFDF74EF953EC182BFDF7D8
:102FB000F1F994ED001B53EC112BFDF744F9BDEC36
:102FC000028B41EC100B70BD31B504462DED040BA6
:102FD0002DED0A8BB0EE41BAF0EE61BA0B989DED83
:102FE0000A0B20F00040B0F1795F0DDA51EC100BC4
:102FF000FFF70BFA042808BF00F09AF89DED0A0BC2
:10300000BDEC0A8B05B030BD53EC102B51EC100B0E
:10301000FDF7C0F941EC180B9DED0A0B53EC182B92
:1030200051EC100BFDF7B6F941EC190B2C48B0EE42
:10303000480AF0EE680A05217844FFF749FF9FED42
:103040002ACBB0EE40AAF0EE60AA9CB353EC1C2B46
:1030500051EC190BFDF79EF941EC1C0B53EC1A2BAC
:1030600051EC190BFDF796F99FED210B41EC190B73
:1030700053EC102B51EC1B0BFDF78CF953EC192B77
:10308000FDF782F953EC182BFDF784F953EC1B2B59
:10309000FDF77AF953EC1C2BFDF776F99DED0A1B31
:1030A00053EC112BFDF773F9BDEC0A8B05B041EC25
:1030B000100B30BDFFE753EC1A2B51EC180BFDF74A
:1030C00069F953EC1C2BFDF7BEF853EC192BFDF7F7
:1030D00061F99DED0A1B53EC112BFDF7B4F8E3E702
:1030E0006404000000000000495555555555C5BF02
:1030F000000000000000E03F10B553EC102B51EC35
:10310000100BFDF7A0F841EC100B10BD0000000003
:103110009FED050B10B553EC102B51EC100BFDF788
:10312000ABF941EC100B10BD0000000000000000E6
:103130009FED050B10B553EC102B51EC100BFDF768
:1031400029F941EC100B10BD000000000000001038
:1031500002E008C8121F08C1002AFAD17047704760
:10316000002001E001C1121F002AFBD170470000BE
:1031700001490860704700005800002082B0CDE986
:10318000000121F0004001909DED000B02B051ECD8
:10319000100B7047FEF7C2F8FEF766FFFEF780FEE1
:1031A000FEF7E8FEFEF7BEFE00210A48FEF70AFE23
:1031B00004210848FEF706FE08210648FEF702FE35
:1031C0000C210448FEF7FEFD02483C38FEF710FCD7
:1031D000FEE700009800002010B52DED048BB0EE46
:1031E000418AF0EE618AB0EE409AF0EE609A53ECBC
:1031F000182B51EC190BFDF7FFF906D2B0EE490A76
:10320000F0EE690ABDEC048B10BDB0EE480AF0EE9A
:10321000680AF7E710B52DED0C8BB0EE41AAF0EE81
:1032200061AAB0EE408AF0EE608AB0EE449AF0EE09
:10323000649AB0EE43BAF0EE63BAB0EE42CAF0EE72
:1032400062CA9FED2ADB53EC1A2B51EC180BFDF7E9
:10325000BBF906D2B0EE4D0AF0EE6D0ABDEC0C8B58
:1032600010BD53EC1C2B51EC180BFDF7ADF912D22D
:1032700053EC1A2B51EC1C0BFDF786F841EC190BA3
:1032800053EC1A2B51EC180BFDF77EF841EC100BA8
:1032900053EC192B22E053EC1B2B51EC180BFDF7D0
:1032A00093F902D29FED130BD8E753EC192B51EC95
:1032B000180BFDF789F9CDD253EC1B2B51EC190BF0
:1032C000FDF762F841EC1A0B53EC192B51EC180B7B
:1032D000FDF75DF853EC1A2B41EC100B51EC100B81
:1032E000FDF7CAF841EC100BB8E700000000000041
:1032F00000000000000000000000F03F000000009F
:103300000000000001020304060708090000000095
:103310004FBB610567ACDD3F182D4454FB21E93FED
:103320009BF681D20B73EF3F182D4454FB21F93FDC
:10333000E2652F227F2B7A3C075C143326A6813C62
:10334000BDCBF07A8807703C075C143326A6913C0D
:10335000C4EB98999999C9BF711623FEC671BCBF79
:103360006D9A74AFF2B0B3BF9AFDDE522DDEADBFE1
:103370002F6C6A2C44B4A2BF0D5555555555D53FF9
:10338000FF8300922449C23F6E204CC5CD45B73F14
:10339000513DD0A0660DB13FEB0D76244B7BA93F8C
:1033A00011DA22E33AAD903F4C5555555555A53F9E
:1033B0007751C1166CC156BF9015CB19A001FA3ECA
:1033C000AD529C804F7E92BEC4B1B4BD9EEE213EF4
:1033D000D43888BEE9FAA8BD00004054FB21F93F6B
:1033E0003163621A61B4D03D0000601A61B4D03D0F
:1033F0007370032E8A19A33B0000002E8A19A33B89
:10340000C14920259A837B3900000000000000009C
:103410006E83F9A22915444ED15727FCC0DD34F53F
:10342000999562DB4190433CAB6351FE61C5BBDEC5
:103430003A6E24B7E0D24D42EA2E49061C92D109D9
:103440001CEB1DFE3EA729B1F53582E88444BB2E56
:1034500026709CE9417E5FB439D69139F4395383A3
:103460008B5F849C3B28F9BDFF97F81F0F9805DE02
:103470008B112FEF1F6D0A5ACF7E366DB709CB2700
:10348000663F464F2DEA5F9EC7BA27757BF1E5EB95
:10349000F739073DEA92528AB15FFB6B085D8D1FD9
:1034A000A6F810111111813FD561C119A0012ABFE1
:1034B0007DFEB157E31DC73EEB9C2B8AE6E55ABE65
:1034C0007CD5CF5A3AD9E53DE83400080000002009
:1034D0005C00000050310008443500085C0000200A
:1034E0007C040000603100088F0100000000000033
:1034F00000000000000000000000000000000000CC
:1035000000000000000000000000000000000000BB
:1035100000000000000000000000000000000000AB
:103520000000000000000000CDCCCC3D9A99193F6E
:103530000100000010000000000000000024F40062
:043540000000000087
:040000050800018965
:00000001FF
